{
  "data": {
    "bytecode": {
      "linkReferences": {},
      "object": "608060405234801561000f575f5ffd5b506040516130e33803806130e383398181016040528101906100319190610533565b338282816003908161004391906107b9565b50806004908161005391906107b9565b5050505f73ffffffffffffffffffffffffffffffffffffffff168173ffffffffffffffffffffffffffffffffffffffff16036100c6575f6040517f1e4fbdf70000000000000000000000000000000000000000000000000000000081526004016100bd91906108c7565b60405180910390fd5b6100d58161032360201b60201c565b506001600681905550600a60405180606001604052806001815260200160328152602001678ac7230489e80000815250908060018154018082558091505060019003905f5260205f2090600302015f909190919091505f820151815f015560208201518160010155604082015181600201555050600a60405180606001604052806033815260200160c881526020016802b5e3af16b1880000815250908060018154018082558091505060019003905f5260205f2090600302015f909190919091505f820151815f015560208201518160010155604082015181600201555050600a604051806060016040528060c981526020016101f48152602001680821ab0d4414980000815250908060018154018082558091505060019003905f5260205f2090600302015f909190919091505f820151815f015560208201518160010155604082015181600201555050600a60405180606001604052806101f581526020016103e881526020016815af1d78b58c400000815250908060018154018082558091505060019003905f5260205f2090600302015f909190919091505f820151815f015560208201518160010155604082015181600201555050600a60405180606001604052806103e981526020017fffffffffffffffffffffffffffffffffffffffffffffffffffffffffffffffff8152602001683635c9adc5dea00000815250908060018154018082558091505060019003905f5260205f2090600302015f909190919091505f820151815f01556020820151816001015560408201518160020155505050506108e0565b5f60055f9054906101000a900473ffffffffffffffffffffffffffffffffffffffff1690508160055f6101000a81548173ffffffffffffffffffffffffffffffffffffffff021916908373ffffffffffffffffffffffffffffffffffffffff1602179055508173ffffffffffffffffffffffffffffffffffffffff168173ffffffffffffffffffffffffffffffffffffffff167f8be0079c531659141344cd1fd0a4f28419497f9722a3daafe3b4186f6b6457e060405160405180910390a35050565b5f604051905090565b5f5ffd5b5f5ffd5b5f5ffd5b5f5ffd5b5f601f19601f8301169050919050565b7f4e487b71000000000000000000000000000000000000000000000000000000005f52604160045260245ffd5b610445826103ff565b810181811067ffffffffffffffff821117156104645761046361040f565b5b80604052505050565b5f6104766103e6565b9050610482828261043c565b919050565b5f67ffffffffffffffff8211156104a1576104a061040f565b5b6104aa826103ff565b9050602081019050919050565b8281835e5f83830152505050565b5f6104d76104d284610487565b61046d565b9050828152602081018484840111156104f3576104f26103fb565b5b6104fe8482856104b7565b509392505050565b5f82601f83011261051a576105196103f7565b5b815161052a8482602086016104c5565b91505092915050565b5f5f60408385031215610549576105486103ef565b5b5f83015167ffffffffffffffff811115610566576105656103f3565b5b61057285828601610506565b925050602083015167ffffffffffffffff811115610593576105926103f3565b5b61059f85828601610506565b9150509250929050565b5f81519050919050565b7f4e487b71000000000000000000000000000000000000000000000000000000005f52602260045260245ffd5b5f60028204905060018216806105f757607f821691505b60208210810361060a576106096105b3565b5b50919050565b5f819050815f5260205f209050919050565b5f6020601f8301049050919050565b5f82821b905092915050565b5f6008830261066c7fffffffffffffffffffffffffffffffffffffffffffffffffffffffffffffffff82610631565b6106768683610631565b95508019841693508086168417925050509392505050565b5f819050919050565b5f819050919050565b5f6106ba6106b56106b08461068e565b610697565b61068e565b9050919050565b5f819050919050565b6106d3836106a0565b6106e76106df826106c1565b84845461063d565b825550505050565b5f5f905090565b6106fe6106ef565b6107098184846106ca565b505050565b5b8181101561072c576107215f826106f6565b60018101905061070f565b5050565b601f8211156107715761074281610610565b61074b84610622565b8101602085101561075a578190505b61076e61076685610622565b83018261070e565b50505b505050565b5f82821c905092915050565b5f6107915f1984600802610776565b1980831691505092915050565b5f6107a98383610782565b9150826002028217905092915050565b6107c2826105a9565b67ffffffffffffffff8111156107db576107da61040f565b5b6107e582546105e0565b6107f0828285610730565b5f60209050601f831160018114610821575f841561080f578287015190505b610819858261079e565b865550610880565b601f19841661082f86610610565b5f5b8281101561085657848901518255600182019150602085019450602081019050610831565b86831015610873578489015161086f601f891682610782565b8355505b6001600288020188555050505b505050505050565b5f73ffffffffffffffffffffffffffffffffffffffff82169050919050565b5f6108b182610888565b9050919050565b6108c1816108a7565b82525050565b5f6020820190506108da5f8301846108b8565b92915050565b6127f6806108ed5f395ff3fe608060405260043610610169575f3560e01c8063715018a6116100d0578063bdba174311610089578063dd62ed3e11610063578063dd62ed3e1461057f578063e086e5ec146105bb578063f2fde38b146105d1578063ff201114146105f957610170565b8063bdba1743146104cb578063c30a0f2514610507578063d2d7231f1461054357610170565b8063715018a6146103d3578063743bad1f146103e95780638da5cb5b1461041157806395d89b411461043b578063a9059cbb14610465578063aaa6444c146104a157610170565b806343785dc91161012257806343785dc9146102a657806346e3077d146102ce5780634fd66eae146102f6578063557bbf7f146103335780636f4475861461036f57806370a082311461039757610170565b806306fdde0314610174578063095ea7b31461019e57806318160ddd146101da57806323b872dd14610204578063313ce56714610240578063339390641461026a57610170565b3661017057005b5f5ffd5b34801561017f575f5ffd5b50610188610637565b6040516101959190611b06565b60405180910390f35b3480156101a9575f5ffd5b506101c460048036038101906101bf9190611bc4565b6106c7565b6040516101d19190611c1c565b60405180910390f35b3480156101e5575f5ffd5b506101ee6106e9565b6040516101fb9190611c44565b60405180910390f35b34801561020f575f5ffd5b5061022a60048036038101906102259190611c5d565b6106f2565b6040516102379190611c1c565b60405180910390f35b34801561024b575f5ffd5b50610254610720565b6040516102619190611cc8565b60405180910390f35b348015610275575f5ffd5b50610290600480360381019061028b9190611ce1565b610728565b60405161029d9190611c44565b60405180910390f35b3480156102b1575f5ffd5b506102cc60048036038101906102c79190611bc4565b61073d565b005b3480156102d9575f5ffd5b506102f460048036038101906102ef9190611e6b565b610753565b005b348015610301575f5ffd5b5061031c60048036038101906103179190611ce1565b6109a6565b60405161032a929190611eeb565b60405180910390f35b34801561033e575f5ffd5b5061035960048036038101906103549190611f12565b610a2d565b6040516103669190611c1c565b60405180910390f35b34801561037a575f5ffd5b5061039560048036038101906103909190611f3d565b610a53565b005b3480156103a2575f5ffd5b506103bd60048036038101906103b89190611ce1565b610b6a565b6040516103ca9190611c44565b60405180910390f35b3480156103de575f5ffd5b506103e7610baf565b005b3480156103f4575f5ffd5b5061040f600480360381019061040a91906122c3565b610bc2565b005b34801561041c575f5ffd5b50610425610f75565b60405161043291906123a6565b60405180910390f35b348015610446575f5ffd5b5061044f610f9d565b60405161045c9190611b06565b60405180910390f35b348015610470575f5ffd5b5061048b60048036038101906104869190611bc4565b61102d565b6040516104989190611c1c565b60405180910390f35b3480156104ac575f5ffd5b506104b561104f565b6040516104c29190611c44565b60405180910390f35b3480156104d6575f5ffd5b506104f160048036038101906104ec9190611ce1565b61105b565b6040516104fe9190611c44565b60405180910390f35b348015610512575f5ffd5b5061052d60048036038101906105289190611f12565b611070565b60405161053a9190611c1c565b60405180910390f35b34801561054e575f5ffd5b50610569600480360381019061056491906123bf565b61108d565b6040516105769190611c44565b60405180910390f35b34801561058a575f5ffd5b506105a560048036038101906105a091906123ea565b611160565b6040516105b29190611c44565b60405180910390f35b3480156105c6575f5ffd5b506105cf6111e2565b005b3480156105dc575f5ffd5b506105f760048036038101906105f29190611ce1565b611237565b005b348015610604575f5ffd5b5061061f600480360381019061061a91906123bf565b6112bb565b60405161062e93929190612428565b60405180910390f35b6060600380546106469061248a565b80601f01602080910402602001604051908101604052809291908181526020018280546106729061248a565b80156106bd5780601f10610694576101008083540402835291602001916106bd565b820191905f5260205f20905b8154815290600101906020018083116106a057829003601f168201915b5050505050905090565b5f5f6106d16112f0565b90506106de8185856112f7565b600191505092915050565b5f600254905090565b5f5f6106fc6112f0565b9050610709858285611309565b61071485858561139c565b60019150509392505050565b5f6012905090565b6009602052805f5260405f205f915090505481565b61074561148c565b61074f8282611513565b5050565b61075b61148c565b610763611592565b5f73ffffffffffffffffffffffffffffffffffffffff168473ffffffffffffffffffffffffffffffffffffffff16036107d1576040517f08c379a00000000000000000000000000000000000000000000000000000000081526004016107c890612504565b60405180910390fd5b5f8311610813576040517f08c379a000000000000000000000000000000000000000000000000000000000815260040161080a9061256c565b60405180910390fd5b60075f8281526020019081526020015f205f9054906101000a900460ff1615610871576040517f08c379a0000000000000000000000000000000000000000000000000000000008152600401610868906125d4565b60405180910390fd5b600160075f8381526020019081526020015f205f6101000a81548160ff0219169083151502179055505f6108a48461108d565b90508060085f8773ffffffffffffffffffffffffffffffffffffffff1673ffffffffffffffffffffffffffffffffffffffff1681526020019081526020015f205f8282546108f2919061261f565b925050819055504260095f8773ffffffffffffffffffffffffffffffffffffffff1673ffffffffffffffffffffffffffffffffffffffff1681526020019081526020015f20819055506109458582611513565b8473ffffffffffffffffffffffffffffffffffffffff167fa5f7ed56245238dcbb9de06d5811029a127263b6018b6b20823ae032e33ecb2d85838660405161098f93929190612652565b60405180910390a2506109a06115e1565b50505050565b5f5f60085f8473ffffffffffffffffffffffffffffffffffffffff1673ffffffffffffffffffffffffffffffffffffffff1681526020019081526020015f205460095f8573ffffffffffffffffffffffffffffffffffffffff1673ffffffffffffffffffffffffffffffffffffffff1681526020019081526020015f205491509150915091565b5f60075f8381526020019081526020015f205f9054906101000a900460ff169050919050565b610a5b61148c565b600a805490508410610acd57600a604051806060016040528085815260200184815260200183815250908060018154018082558091505060019003905f5260205f2090600302015f909190919091505f820151815f015560208201518160010155604082015181600201555050610b28565b604051806060016040528084815260200183815260200182815250600a8581548110610afc57610afb61268e565b5b905f5260205f2090600302015f820151815f015560208201518160010155604082015181600201559050505b837f66c998c4f16e6680d6471c293823ebfb3b9f053a14111a2e24f54578c4c7975f848484604051610b5c93929190612428565b60405180910390a250505050565b5f5f5f8373ffffffffffffffffffffffffffffffffffffffff1673ffffffffffffffffffffffffffffffffffffffff1681526020019081526020015f20549050919050565b610bb761148c565b610bc05f6115eb565b565b610bca61148c565b610bd2611592565b8251845114610c16576040517f08c379a0000000000000000000000000000000000000000000000000000000008152600401610c0d90612705565b60405180910390fd5b8151845114610c5a576040517f08c379a0000000000000000000000000000000000000000000000000000000008152600401610c5190612705565b60405180910390fd5b8051845114610c9e576040517f08c379a0000000000000000000000000000000000000000000000000000000008152600401610c9590612705565b60405180910390fd5b5f5f90505b8451811015610f66575f73ffffffffffffffffffffffffffffffffffffffff16858281518110610cd657610cd561268e565b5b602002602001015173ffffffffffffffffffffffffffffffffffffffff1614158015610d1b57505f848281518110610d1157610d1061268e565b5b6020026020010151115b8015610d5c575060075f838381518110610d3857610d3761268e565b5b602002602001015181526020019081526020015f205f9054906101000a900460ff16155b15610f5957600160075f848481518110610d7957610d7861268e565b5b602002602001015181526020019081526020015f205f6101000a81548160ff0219169083151502179055505f610dc8858381518110610dbb57610dba61268e565b5b602002602001015161108d565b90508060085f888581518110610de157610de061268e565b5b602002602001015173ffffffffffffffffffffffffffffffffffffffff1673ffffffffffffffffffffffffffffffffffffffff1681526020019081526020015f205f828254610e30919061261f565b925050819055504260095f888581518110610e4e57610e4d61268e565b5b602002602001015173ffffffffffffffffffffffffffffffffffffffff1673ffffffffffffffffffffffffffffffffffffffff1681526020019081526020015f2081905550610eb7868381518110610ea957610ea861268e565b5b602002602001015182611513565b858281518110610eca57610ec961268e565b5b602002602001015173ffffffffffffffffffffffffffffffffffffffff167fa5f7ed56245238dcbb9de06d5811029a127263b6018b6b20823ae032e33ecb2d868481518110610f1c57610f1b61268e565b5b602002602001015183878681518110610f3857610f3761268e565b5b6020026020010151604051610f4f93929190612652565b60405180910390a2505b8080600101915050610ca3565b50610f6f6115e1565b50505050565b5f60055f9054906101000a900473ffffffffffffffffffffffffffffffffffffffff16905090565b606060048054610fac9061248a565b80601f0160208091040260200160405190810160405280929190818152602001828054610fd89061248a565b80156110235780601f10610ffa57610100808354040283529160200191611023565b820191905f5260205f20905b81548152906001019060200180831161100657829003601f168201915b5050505050905090565b5f5f6110376112f0565b905061104481858561139c565b600191505092915050565b5f600a80549050905090565b6008602052805f5260405f205f915090505481565b6007602052805f5260405f205f915054906101000a900460ff1681565b5f5f5f90505b600a8054905081101561113357600a81815481106110b4576110b361268e565b5b905f5260205f2090600302015f015483101580156110f55750600a81815481106110e1576110e061268e565b5b905f5260205f209060030201600101548311155b1561112657600a818154811061110e5761110d61268e565b5b905f5260205f2090600302016002015491505061115b565b8080600101915050611093565b50600a5f815481106111485761114761268e565b5b905f5260205f2090600302016002015490505b919050565b5f60015f8473ffffffffffffffffffffffffffffffffffffffff1673ffffffffffffffffffffffffffffffffffffffff1681526020019081526020015f205f8373ffffffffffffffffffffffffffffffffffffffff1673ffffffffffffffffffffffffffffffffffffffff1681526020019081526020015f2054905092915050565b6111ea61148c565b6111f2610f75565b73ffffffffffffffffffffffffffffffffffffffff166108fc4790811502906040515f60405180830381858888f19350505050158015611234573d5f5f3e3d5ffd5b50565b61123f61148c565b5f73ffffffffffffffffffffffffffffffffffffffff168173ffffffffffffffffffffffffffffffffffffffff16036112af575f6040517f1e4fbdf70000000000000000000000000000000000000000000000000000000081526004016112a691906123a6565b60405180910390fd5b6112b8816115eb565b50565b600a81815481106112ca575f80fd5b905f5260205f2090600302015f91509050805f0154908060010154908060020154905083565b5f33905090565b61130483838360016116ae565b505050565b5f6113148484611160565b90507fffffffffffffffffffffffffffffffffffffffffffffffffffffffffffffffff8110156113965781811015611387578281836040517ffb8f41b200000000000000000000000000000000000000000000000000000000815260040161137e93929190612723565b60405180910390fd5b61139584848484035f6116ae565b5b50505050565b5f73ffffffffffffffffffffffffffffffffffffffff168373ffffffffffffffffffffffffffffffffffffffff160361140c575f6040517f96c6fd1e00000000000000000000000000000000000000000000000000000000815260040161140391906123a6565b60405180910390fd5b5f73ffffffffffffffffffffffffffffffffffffffff168273ffffffffffffffffffffffffffffffffffffffff160361147c575f6040517fec442f0500000000000000000000000000000000000000000000000000000000815260040161147391906123a6565b60405180910390fd5b61148783838361187d565b505050565b6114946112f0565b73ffffffffffffffffffffffffffffffffffffffff166114b2610f75565b73ffffffffffffffffffffffffffffffffffffffff1614611511576114d56112f0565b6040517f118cdaa700000000000000000000000000000000000000000000000000000000815260040161150891906123a6565b60405180910390fd5b565b5f73ffffffffffffffffffffffffffffffffffffffff168273ffffffffffffffffffffffffffffffffffffffff1603611583575f6040517fec442f0500000000000000000000000000000000000000000000000000000000815260040161157a91906123a6565b60405180910390fd5b61158e5f838361187d565b5050565b6002600654036115d7576040517f08c379a00000000000000000000000000000000000000000000000000000000081526004016115ce906127a2565b60405180910390fd5b6002600681905550565b6001600681905550565b5f60055f9054906101000a900473ffffffffffffffffffffffffffffffffffffffff1690508160055f6101000a81548173ffffffffffffffffffffffffffffffffffffffff021916908373ffffffffffffffffffffffffffffffffffffffff1602179055508173ffffffffffffffffffffffffffffffffffffffff168173ffffffffffffffffffffffffffffffffffffffff167f8be0079c531659141344cd1fd0a4f28419497f9722a3daafe3b4186f6b6457e060405160405180910390a35050565b5f73ffffffffffffffffffffffffffffffffffffffff168473ffffffffffffffffffffffffffffffffffffffff160361171e575f6040517fe602df0500000000000000000000000000000000000000000000000000000000815260040161171591906123a6565b60405180910390fd5b5f73ffffffffffffffffffffffffffffffffffffffff168373ffffffffffffffffffffffffffffffffffffffff160361178e575f6040517f94280d6200000000000000000000000000000000000000000000000000000000815260040161178591906123a6565b60405180910390fd5b8160015f8673ffffffffffffffffffffffffffffffffffffffff1673ffffffffffffffffffffffffffffffffffffffff1681526020019081526020015f205f8573ffffffffffffffffffffffffffffffffffffffff1673ffffffffffffffffffffffffffffffffffffffff1681526020019081526020015f20819055508015611877578273ffffffffffffffffffffffffffffffffffffffff168473ffffffffffffffffffffffffffffffffffffffff167f8c5be1e5ebec7d5bd14f71427d1e84f3dd0314c0f7b2291e5b200ac8c7c3b9258460405161186e9190611c44565b60405180910390a35b50505050565b5f73ffffffffffffffffffffffffffffffffffffffff168373ffffffffffffffffffffffffffffffffffffffff16036118cd578060025f8282546118c1919061261f565b9250508190555061199b565b5f5f5f8573ffffffffffffffffffffffffffffffffffffffff1673ffffffffffffffffffffffffffffffffffffffff1681526020019081526020015f2054905081811015611956578381836040517fe450d38c00000000000000000000000000000000000000000000000000000000815260040161194d93929190612723565b60405180910390fd5b8181035f5f8673ffffffffffffffffffffffffffffffffffffffff1673ffffffffffffffffffffffffffffffffffffffff1681526020019081526020015f2081905550505b5f73ffffffffffffffffffffffffffffffffffffffff168273ffffffffffffffffffffffffffffffffffffffff16036119e2578060025f8282540392505081905550611a2c565b805f5f8473ffffffffffffffffffffffffffffffffffffffff1673ffffffffffffffffffffffffffffffffffffffff1681526020019081526020015f205f82825401925050819055505b8173ffffffffffffffffffffffffffffffffffffffff168373ffffffffffffffffffffffffffffffffffffffff167fddf252ad1be2c89b69c2b068fc378daa952ba7f163c4a11628f55a4df523b3ef83604051611a899190611c44565b60405180910390a3505050565b5f81519050919050565b5f82825260208201905092915050565b8281835e5f83830152505050565b5f601f19601f8301169050919050565b5f611ad882611a96565b611ae28185611aa0565b9350611af2818560208601611ab0565b611afb81611abe565b840191505092915050565b5f6020820190508181035f830152611b1e8184611ace565b905092915050565b5f604051905090565b5f5ffd5b5f5ffd5b5f73ffffffffffffffffffffffffffffffffffffffff82169050919050565b5f611b6082611b37565b9050919050565b611b7081611b56565b8114611b7a575f5ffd5b50565b5f81359050611b8b81611b67565b92915050565b5f819050919050565b611ba381611b91565b8114611bad575f5ffd5b50565b5f81359050611bbe81611b9a565b92915050565b5f5f60408385031215611bda57611bd9611b2f565b5b5f611be785828601611b7d565b9250506020611bf885828601611bb0565b9150509250929050565b5f8115159050919050565b611c1681611c02565b82525050565b5f602082019050611c2f5f830184611c0d565b92915050565b611c3e81611b91565b82525050565b5f602082019050611c575f830184611c35565b92915050565b5f5f5f60608486031215611c7457611c73611b2f565b5b5f611c8186828701611b7d565b9350506020611c9286828701611b7d565b9250506040611ca386828701611bb0565b9150509250925092565b5f60ff82169050919050565b611cc281611cad565b82525050565b5f602082019050611cdb5f830184611cb9565b92915050565b5f60208284031215611cf657611cf5611b2f565b5b5f611d0384828501611b7d565b91505092915050565b5f5ffd5b5f5ffd5b7f4e487b71000000000000000000000000000000000000000000000000000000005f52604160045260245ffd5b611d4a82611abe565b810181811067ffffffffffffffff82111715611d6957611d68611d14565b5b80604052505050565b5f611d7b611b26565b9050611d878282611d41565b919050565b5f67ffffffffffffffff821115611da657611da5611d14565b5b611daf82611abe565b9050602081019050919050565b828183375f83830152505050565b5f611ddc611dd784611d8c565b611d72565b905082815260208101848484011115611df857611df7611d10565b5b611e03848285611dbc565b509392505050565b5f82601f830112611e1f57611e1e611d0c565b5b8135611e2f848260208601611dca565b91505092915050565b5f819050919050565b611e4a81611e38565b8114611e54575f5ffd5b50565b5f81359050611e6581611e41565b92915050565b5f5f5f5f60808587031215611e8357611e82611b2f565b5b5f611e9087828801611b7d565b9450506020611ea187828801611bb0565b935050604085013567ffffffffffffffff811115611ec257611ec1611b33565b5b611ece87828801611e0b565b9250506060611edf87828801611e57565b91505092959194509250565b5f604082019050611efe5f830185611c35565b611f0b6020830184611c35565b9392505050565b5f60208284031215611f2757611f26611b2f565b5b5f611f3484828501611e57565b91505092915050565b5f5f5f5f60808587031215611f5557611f54611b2f565b5b5f611f6287828801611bb0565b9450506020611f7387828801611bb0565b9350506040611f8487828801611bb0565b9250506060611f9587828801611bb0565b91505092959194509250565b5f67ffffffffffffffff821115611fbb57611fba611d14565b5b602082029050602081019050919050565b5f5ffd5b5f611fe2611fdd84611fa1565b611d72565b9050808382526020820190506020840283018581111561200557612004611fcc565b5b835b8181101561202e578061201a8882611b7d565b845260208401935050602081019050612007565b5050509392505050565b5f82601f83011261204c5761204b611d0c565b5b813561205c848260208601611fd0565b91505092915050565b5f67ffffffffffffffff82111561207f5761207e611d14565b5b602082029050602081019050919050565b5f6120a261209d84612065565b611d72565b905080838252602082019050602084028301858111156120c5576120c4611fcc565b5b835b818110156120ee57806120da8882611bb0565b8452602084019350506020810190506120c7565b5050509392505050565b5f82601f83011261210c5761210b611d0c565b5b813561211c848260208601612090565b91505092915050565b5f67ffffffffffffffff82111561213f5761213e611d14565b5b602082029050602081019050919050565b5f61216261215d84612125565b611d72565b9050808382526020820190506020840283018581111561218557612184611fcc565b5b835b818110156121cc57803567ffffffffffffffff8111156121aa576121a9611d0c565b5b8086016121b78982611e0b565b85526020850194505050602081019050612187565b5050509392505050565b5f82601f8301126121ea576121e9611d0c565b5b81356121fa848260208601612150565b91505092915050565b5f67ffffffffffffffff82111561221d5761221c611d14565b5b602082029050602081019050919050565b5f61224061223b84612203565b611d72565b9050808382526020820190506020840283018581111561226357612262611fcc565b5b835b8181101561228c57806122788882611e57565b845260208401935050602081019050612265565b5050509392505050565b5f82601f8301126122aa576122a9611d0c565b5b81356122ba84826020860161222e565b91505092915050565b5f5f5f5f608085870312156122db576122da611b2f565b5b5f85013567ffffffffffffffff8111156122f8576122f7611b33565b5b61230487828801612038565b945050602085013567ffffffffffffffff81111561232557612324611b33565b5b612331878288016120f8565b935050604085013567ffffffffffffffff81111561235257612351611b33565b5b61235e878288016121d6565b925050606085013567ffffffffffffffff81111561237f5761237e611b33565b5b61238b87828801612296565b91505092959194509250565b6123a081611b56565b82525050565b5f6020820190506123b95f830184612397565b92915050565b5f602082840312156123d4576123d3611b2f565b5b5f6123e184828501611bb0565b91505092915050565b5f5f60408385031215612400576123ff611b2f565b5b5f61240d85828601611b7d565b925050602061241e85828601611b7d565b9150509250929050565b5f60608201905061243b5f830186611c35565b6124486020830185611c35565b6124556040830184611c35565b949350505050565b7f4e487b71000000000000000000000000000000000000000000000000000000005f52602260045260245ffd5b5f60028204905060018216806124a157607f821691505b6020821081036124b4576124b361245d565b5b50919050565b7f496e76616c696420706c617965722061646472657373000000000000000000005f82015250565b5f6124ee601683611aa0565b91506124f9826124ba565b602082019050919050565b5f6020820190508181035f83015261251b816124e2565b9050919050565b7f4d7573742064657374726f79206174206c65617374203120626c6f636b0000005f82015250565b5f612556601d83611aa0565b915061256182612522565b602082019050919050565b5f6020820190508181035f8301526125838161254a565b9050919050565b7f50726f6f6620616c7265616479207573656400000000000000000000000000005f82015250565b5f6125be601283611aa0565b91506125c98261258a565b602082019050919050565b5f6020820190508181035f8301526125eb816125b2565b9050919050565b7f4e487b71000000000000000000000000000000000000000000000000000000005f52601160045260245ffd5b5f61262982611b91565b915061263483611b91565b925082820190508082111561264c5761264b6125f2565b5b92915050565b5f6060820190506126655f830186611c35565b6126726020830185611c35565b81810360408301526126848184611ace565b9050949350505050565b7f4e487b71000000000000000000000000000000000000000000000000000000005f52603260045260245ffd5b7f4172726179206c656e677468206d69736d6174636800000000000000000000005f82015250565b5f6126ef601583611aa0565b91506126fa826126bb565b602082019050919050565b5f6020820190508181035f83015261271c816126e3565b9050919050565b5f6060820190506127365f830186612397565b6127436020830185611c35565b6127506040830184611c35565b949350505050565b7f5265656e7472616e637947756172643a207265656e7472616e742063616c6c005f82015250565b5f61278c601f83611aa0565b915061279782612758565b602082019050919050565b5f6020820190508181035f8301526127b981612780565b905091905056fea2646970667358221220ced07c46e675d77b6a137438a80eeb35581edd948f44c9ed32e21a37237cdfb464736f6c634300081e0033",
      "opcodes": "PUSH1 0x80 PUSH1 0x40 MSTORE CALLVALUE DUP1 ISZERO PUSH2 0xF JUMPI PUSH0 PUSH0 REVERT JUMPDEST POP PUSH1 0x40 MLOAD PUSH2 0x30E3 CODESIZE SUB DUP1 PUSH2 0x30E3 DUP4 CODECOPY DUP2 DUP2 ADD PUSH1 0x40 MSTORE DUP2 ADD SWAP1 PUSH2 0x31 SWAP2 SWAP1 PUSH2 0x533 JUMP JUMPDEST CALLER DUP3 DUP3 DUP2 PUSH1 0x3 SWAP1 DUP2 PUSH2 0x43 SWAP2 SWAP1 PUSH2 0x7B9 JUMP JUMPDEST POP DUP1 PUSH1 0x4 SWAP1 DUP2 PUSH2 0x53 SWAP2 SWAP1 PUSH2 0x7B9 JUMP JUMPDEST POP POP POP PUSH0 PUSH20 0xFFFFFFFFFFFFFFFFFFFFFFFFFFFFFFFFFFFFFFFF AND DUP2 PUSH20 0xFFFFFFFFFFFFFFFFFFFFFFFFFFFFFFFFFFFFFFFF AND SUB PUSH2 0xC6 JUMPI PUSH0 PUSH1 0x40 MLOAD PUSH32 0x1E4FBDF700000000000000000000000000000000000000000000000000000000 DUP2 MSTORE PUSH1 0x4 ADD PUSH2 0xBD SWAP2 SWAP1 PUSH2 0x8C7 JUMP JUMPDEST PUSH1 0x40 MLOAD DUP1 SWAP2 SUB SWAP1 REVERT JUMPDEST PUSH2 0xD5 DUP2 PUSH2 0x323 PUSH1 0x20 SHL PUSH1 0x20 SHR JUMP JUMPDEST POP PUSH1 0x1 PUSH1 0x6 DUP2 SWAP1 SSTORE POP PUSH1 0xA PUSH1 0x40 MLOAD DUP1 PUSH1 0x60 ADD PUSH1 0x40 MSTORE DUP1 PUSH1 0x1 DUP2 MSTORE PUSH1 0x20 ADD PUSH1 0x32 DUP2 MSTORE PUSH1 0x20 ADD PUSH8 0x8AC7230489E80000 DUP2 MSTORE POP SWAP1 DUP1 PUSH1 0x1 DUP2 SLOAD ADD DUP1 DUP3 SSTORE DUP1 SWAP2 POP POP PUSH1 0x1 SWAP1 SUB SWAP1 PUSH0 MSTORE PUSH1 0x20 PUSH0 KECCAK256 SWAP1 PUSH1 0x3 MUL ADD PUSH0 SWAP1 SWAP2 SWAP1 SWAP2 SWAP1 SWAP2 POP PUSH0 DUP3 ADD MLOAD DUP2 PUSH0 ADD SSTORE PUSH1 0x20 DUP3 ADD MLOAD DUP2 PUSH1 0x1 ADD SSTORE PUSH1 0x40 DUP3 ADD MLOAD DUP2 PUSH1 0x2 ADD SSTORE POP POP PUSH1 0xA PUSH1 0x40 MLOAD DUP1 PUSH1 0x60 ADD PUSH1 0x40 MSTORE DUP1 PUSH1 0x33 DUP2 MSTORE PUSH1 0x20 ADD PUSH1 0xC8 DUP2 MSTORE PUSH1 0x20 ADD PUSH9 0x2B5E3AF16B1880000 DUP2 MSTORE POP SWAP1 DUP1 PUSH1 0x1 DUP2 SLOAD ADD DUP1 DUP3 SSTORE DUP1 SWAP2 POP POP PUSH1 0x1 SWAP1 SUB SWAP1 PUSH0 MSTORE PUSH1 0x20 PUSH0 KECCAK256 SWAP1 PUSH1 0x3 MUL ADD PUSH0 SWAP1 SWAP2 SWAP1 SWAP2 SWAP1 SWAP2 POP PUSH0 DUP3 ADD MLOAD DUP2 PUSH0 ADD SSTORE PUSH1 0x20 DUP3 ADD MLOAD DUP2 PUSH1 0x1 ADD SSTORE PUSH1 0x40 DUP3 ADD MLOAD DUP2 PUSH1 0x2 ADD SSTORE POP POP PUSH1 0xA PUSH1 0x40 MLOAD DUP1 PUSH1 0x60 ADD PUSH1 0x40 MSTORE DUP1 PUSH1 0xC9 DUP2 MSTORE PUSH1 0x20 ADD PUSH2 0x1F4 DUP2 MSTORE PUSH1 0x20 ADD PUSH9 0x821AB0D4414980000 DUP2 MSTORE POP SWAP1 DUP1 PUSH1 0x1 DUP2 SLOAD ADD DUP1 DUP3 SSTORE DUP1 SWAP2 POP POP PUSH1 0x1 SWAP1 SUB SWAP1 PUSH0 MSTORE PUSH1 0x20 PUSH0 KECCAK256 SWAP1 PUSH1 0x3 MUL ADD PUSH0 SWAP1 SWAP2 SWAP1 SWAP2 SWAP1 SWAP2 POP PUSH0 DUP3 ADD MLOAD DUP2 PUSH0 ADD SSTORE PUSH1 0x20 DUP3 ADD MLOAD DUP2 PUSH1 0x1 ADD SSTORE PUSH1 0x40 DUP3 ADD MLOAD DUP2 PUSH1 0x2 ADD SSTORE POP POP PUSH1 0xA PUSH1 0x40 MLOAD DUP1 PUSH1 0x60 ADD PUSH1 0x40 MSTORE DUP1 PUSH2 0x1F5 DUP2 MSTORE PUSH1 0x20 ADD PUSH2 0x3E8 DUP2 MSTORE PUSH1 0x20 ADD PUSH9 0x15AF1D78B58C400000 DUP2 MSTORE POP SWAP1 DUP1 PUSH1 0x1 DUP2 SLOAD ADD DUP1 DUP3 SSTORE DUP1 SWAP2 POP POP PUSH1 0x1 SWAP1 SUB SWAP1 PUSH0 MSTORE PUSH1 0x20 PUSH0 KECCAK256 SWAP1 PUSH1 0x3 MUL ADD PUSH0 SWAP1 SWAP2 SWAP1 SWAP2 SWAP1 SWAP2 POP PUSH0 DUP3 ADD MLOAD DUP2 PUSH0 ADD SSTORE PUSH1 0x20 DUP3 ADD MLOAD DUP2 PUSH1 0x1 ADD SSTORE PUSH1 0x40 DUP3 ADD MLOAD DUP2 PUSH1 0x2 ADD SSTORE POP POP PUSH1 0xA PUSH1 0x40 MLOAD DUP1 PUSH1 0x60 ADD PUSH1 0x40 MSTORE DUP1 PUSH2 0x3E9 DUP2 MSTORE PUSH1 0x20 ADD PUSH32 0xFFFFFFFFFFFFFFFFFFFFFFFFFFFFFFFFFFFFFFFFFFFFFFFFFFFFFFFFFFFFFFFF DUP2 MSTORE PUSH1 0x20 ADD PUSH9 0x3635C9ADC5DEA00000 DUP2 MSTORE POP SWAP1 DUP1 PUSH1 0x1 DUP2 SLOAD ADD DUP1 DUP3 SSTORE DUP1 SWAP2 POP POP PUSH1 0x1 SWAP1 SUB SWAP1 PUSH0 MSTORE PUSH1 0x20 PUSH0 KECCAK256 SWAP1 PUSH1 0x3 MUL ADD PUSH0 SWAP1 SWAP2 SWAP1 SWAP2 SWAP1 SWAP2 POP PUSH0 DUP3 ADD MLOAD DUP2 PUSH0 ADD SSTORE PUSH1 0x20 DUP3 ADD MLOAD DUP2 PUSH1 0x1 ADD SSTORE PUSH1 0x40 DUP3 ADD MLOAD DUP2 PUSH1 0x2 ADD SSTORE POP POP POP POP PUSH2 0x8E0 JUMP JUMPDEST PUSH0 PUSH1 0x5 PUSH0 SWAP1 SLOAD SWAP1 PUSH2 0x100 EXP SWAP1 DIV PUSH20 0xFFFFFFFFFFFFFFFFFFFFFFFFFFFFFFFFFFFFFFFF AND SWAP1 POP DUP2 PUSH1 0x5 PUSH0 PUSH2 0x100 EXP DUP2 SLOAD DUP2 PUSH20 0xFFFFFFFFFFFFFFFFFFFFFFFFFFFFFFFFFFFFFFFF MUL NOT AND SWAP1 DUP4 PUSH20 0xFFFFFFFFFFFFFFFFFFFFFFFFFFFFFFFFFFFFFFFF AND MUL OR SWAP1 SSTORE POP DUP2 PUSH20 0xFFFFFFFFFFFFFFFFFFFFFFFFFFFFFFFFFFFFFFFF AND DUP2 PUSH20 0xFFFFFFFFFFFFFFFFFFFFFFFFFFFFFFFFFFFFFFFF AND PUSH32 0x8BE0079C531659141344CD1FD0A4F28419497F9722A3DAAFE3B4186F6B6457E0 PUSH1 0x40 MLOAD PUSH1 0x40 MLOAD DUP1 SWAP2 SUB SWAP1 LOG3 POP POP JUMP JUMPDEST PUSH0 PUSH1 0x40 MLOAD SWAP1 POP SWAP1 JUMP JUMPDEST PUSH0 PUSH0 REVERT JUMPDEST PUSH0 PUSH0 REVERT JUMPDEST PUSH0 PUSH0 REVERT JUMPDEST PUSH0 PUSH0 REVERT JUMPDEST PUSH0 PUSH1 0x1F NOT PUSH1 0x1F DUP4 ADD AND SWAP1 POP SWAP2 SWAP1 POP JUMP JUMPDEST PUSH32 0x4E487B7100000000000000000000000000000000000000000000000000000000 PUSH0 MSTORE PUSH1 0x41 PUSH1 0x4 MSTORE PUSH1 0x24 PUSH0 REVERT JUMPDEST PUSH2 0x445 DUP3 PUSH2 0x3FF JUMP JUMPDEST DUP2 ADD DUP2 DUP2 LT PUSH8 0xFFFFFFFFFFFFFFFF DUP3 GT OR ISZERO PUSH2 0x464 JUMPI PUSH2 0x463 PUSH2 0x40F JUMP JUMPDEST JUMPDEST DUP1 PUSH1 0x40 MSTORE POP POP POP JUMP JUMPDEST PUSH0 PUSH2 0x476 PUSH2 0x3E6 JUMP JUMPDEST SWAP1 POP PUSH2 0x482 DUP3 DUP3 PUSH2 0x43C JUMP JUMPDEST SWAP2 SWAP1 POP JUMP JUMPDEST PUSH0 PUSH8 0xFFFFFFFFFFFFFFFF DUP3 GT ISZERO PUSH2 0x4A1 JUMPI PUSH2 0x4A0 PUSH2 0x40F JUMP JUMPDEST JUMPDEST PUSH2 0x4AA DUP3 PUSH2 0x3FF JUMP JUMPDEST SWAP1 POP PUSH1 0x20 DUP2 ADD SWAP1 POP SWAP2 SWAP1 POP JUMP JUMPDEST DUP3 DUP2 DUP4 MCOPY PUSH0 DUP4 DUP4 ADD MSTORE POP POP POP JUMP JUMPDEST PUSH0 PUSH2 0x4D7 PUSH2 0x4D2 DUP5 PUSH2 0x487 JUMP JUMPDEST PUSH2 0x46D JUMP JUMPDEST SWAP1 POP DUP3 DUP2 MSTORE PUSH1 0x20 DUP2 ADD DUP5 DUP5 DUP5 ADD GT ISZERO PUSH2 0x4F3 JUMPI PUSH2 0x4F2 PUSH2 0x3FB JUMP JUMPDEST JUMPDEST PUSH2 0x4FE DUP5 DUP3 DUP6 PUSH2 0x4B7 JUMP JUMPDEST POP SWAP4 SWAP3 POP POP POP JUMP JUMPDEST PUSH0 DUP3 PUSH1 0x1F DUP4 ADD SLT PUSH2 0x51A JUMPI PUSH2 0x519 PUSH2 0x3F7 JUMP JUMPDEST JUMPDEST DUP2 MLOAD PUSH2 0x52A DUP5 DUP3 PUSH1 0x20 DUP7 ADD PUSH2 0x4C5 JUMP JUMPDEST SWAP2 POP POP SWAP3 SWAP2 POP POP JUMP JUMPDEST PUSH0 PUSH0 PUSH1 0x40 DUP4 DUP6 SUB SLT ISZERO PUSH2 0x549 JUMPI PUSH2 0x548 PUSH2 0x3EF JUMP JUMPDEST JUMPDEST PUSH0 DUP4 ADD MLOAD PUSH8 0xFFFFFFFFFFFFFFFF DUP2 GT ISZERO PUSH2 0x566 JUMPI PUSH2 0x565 PUSH2 0x3F3 JUMP JUMPDEST JUMPDEST PUSH2 0x572 DUP6 DUP3 DUP7 ADD PUSH2 0x506 JUMP JUMPDEST SWAP3 POP POP PUSH1 0x20 DUP4 ADD MLOAD PUSH8 0xFFFFFFFFFFFFFFFF DUP2 GT ISZERO PUSH2 0x593 JUMPI PUSH2 0x592 PUSH2 0x3F3 JUMP JUMPDEST JUMPDEST PUSH2 0x59F DUP6 DUP3 DUP7 ADD PUSH2 0x506 JUMP JUMPDEST SWAP2 POP POP SWAP3 POP SWAP3 SWAP1 POP JUMP JUMPDEST PUSH0 DUP2 MLOAD SWAP1 POP SWAP2 SWAP1 POP JUMP JUMPDEST PUSH32 0x4E487B7100000000000000000000000000000000000000000000000000000000 PUSH0 MSTORE PUSH1 0x22 PUSH1 0x4 MSTORE PUSH1 0x24 PUSH0 REVERT JUMPDEST PUSH0 PUSH1 0x2 DUP3 DIV SWAP1 POP PUSH1 0x1 DUP3 AND DUP1 PUSH2 0x5F7 JUMPI PUSH1 0x7F DUP3 AND SWAP2 POP JUMPDEST PUSH1 0x20 DUP3 LT DUP2 SUB PUSH2 0x60A JUMPI PUSH2 0x609 PUSH2 0x5B3 JUMP JUMPDEST JUMPDEST POP SWAP2 SWAP1 POP JUMP JUMPDEST PUSH0 DUP2 SWAP1 POP DUP2 PUSH0 MSTORE PUSH1 0x20 PUSH0 KECCAK256 SWAP1 POP SWAP2 SWAP1 POP JUMP JUMPDEST PUSH0 PUSH1 0x20 PUSH1 0x1F DUP4 ADD DIV SWAP1 POP SWAP2 SWAP1 POP JUMP JUMPDEST PUSH0 DUP3 DUP3 SHL SWAP1 POP SWAP3 SWAP2 POP POP JUMP JUMPDEST PUSH0 PUSH1 0x8 DUP4 MUL PUSH2 0x66C PUSH32 0xFFFFFFFFFFFFFFFFFFFFFFFFFFFFFFFFFFFFFFFFFFFFFFFFFFFFFFFFFFFFFFFF DUP3 PUSH2 0x631 JUMP JUMPDEST PUSH2 0x676 DUP7 DUP4 PUSH2 0x631 JUMP JUMPDEST SWAP6 POP DUP1 NOT DUP5 AND SWAP4 POP DUP1 DUP7 AND DUP5 OR SWAP3 POP POP POP SWAP4 SWAP3 POP POP POP JUMP JUMPDEST PUSH0 DUP2 SWAP1 POP SWAP2 SWAP1 POP JUMP JUMPDEST PUSH0 DUP2 SWAP1 POP SWAP2 SWAP1 POP JUMP JUMPDEST PUSH0 PUSH2 0x6BA PUSH2 0x6B5 PUSH2 0x6B0 DUP5 PUSH2 0x68E JUMP JUMPDEST PUSH2 0x697 JUMP JUMPDEST PUSH2 0x68E JUMP JUMPDEST SWAP1 POP SWAP2 SWAP1 POP JUMP JUMPDEST PUSH0 DUP2 SWAP1 POP SWAP2 SWAP1 POP JUMP JUMPDEST PUSH2 0x6D3 DUP4 PUSH2 0x6A0 JUMP JUMPDEST PUSH2 0x6E7 PUSH2 0x6DF DUP3 PUSH2 0x6C1 JUMP JUMPDEST DUP5 DUP5 SLOAD PUSH2 0x63D JUMP JUMPDEST DUP3 SSTORE POP POP POP POP JUMP JUMPDEST PUSH0 PUSH0 SWAP1 POP SWAP1 JUMP JUMPDEST PUSH2 0x6FE PUSH2 0x6EF JUMP JUMPDEST PUSH2 0x709 DUP2 DUP5 DUP5 PUSH2 0x6CA JUMP JUMPDEST POP POP POP JUMP JUMPDEST JUMPDEST DUP2 DUP2 LT ISZERO PUSH2 0x72C JUMPI PUSH2 0x721 PUSH0 DUP3 PUSH2 0x6F6 JUMP JUMPDEST PUSH1 0x1 DUP2 ADD SWAP1 POP PUSH2 0x70F JUMP JUMPDEST POP POP JUMP JUMPDEST PUSH1 0x1F DUP3 GT ISZERO PUSH2 0x771 JUMPI PUSH2 0x742 DUP2 PUSH2 0x610 JUMP JUMPDEST PUSH2 0x74B DUP5 PUSH2 0x622 JUMP JUMPDEST DUP2 ADD PUSH1 0x20 DUP6 LT ISZERO PUSH2 0x75A JUMPI DUP2 SWAP1 POP JUMPDEST PUSH2 0x76E PUSH2 0x766 DUP6 PUSH2 0x622 JUMP JUMPDEST DUP4 ADD DUP3 PUSH2 0x70E JUMP JUMPDEST POP POP JUMPDEST POP POP POP JUMP JUMPDEST PUSH0 DUP3 DUP3 SHR SWAP1 POP SWAP3 SWAP2 POP POP JUMP JUMPDEST PUSH0 PUSH2 0x791 PUSH0 NOT DUP5 PUSH1 0x8 MUL PUSH2 0x776 JUMP JUMPDEST NOT DUP1 DUP4 AND SWAP2 POP POP SWAP3 SWAP2 POP POP JUMP JUMPDEST PUSH0 PUSH2 0x7A9 DUP4 DUP4 PUSH2 0x782 JUMP JUMPDEST SWAP2 POP DUP3 PUSH1 0x2 MUL DUP3 OR SWAP1 POP SWAP3 SWAP2 POP POP JUMP JUMPDEST PUSH2 0x7C2 DUP3 PUSH2 0x5A9 JUMP JUMPDEST PUSH8 0xFFFFFFFFFFFFFFFF DUP2 GT ISZERO PUSH2 0x7DB JUMPI PUSH2 0x7DA PUSH2 0x40F JUMP JUMPDEST JUMPDEST PUSH2 0x7E5 DUP3 SLOAD PUSH2 0x5E0 JUMP JUMPDEST PUSH2 0x7F0 DUP3 DUP3 DUP6 PUSH2 0x730 JUMP JUMPDEST PUSH0 PUSH1 0x20 SWAP1 POP PUSH1 0x1F DUP4 GT PUSH1 0x1 DUP2 EQ PUSH2 0x821 JUMPI PUSH0 DUP5 ISZERO PUSH2 0x80F JUMPI DUP3 DUP8 ADD MLOAD SWAP1 POP JUMPDEST PUSH2 0x819 DUP6 DUP3 PUSH2 0x79E JUMP JUMPDEST DUP7 SSTORE POP PUSH2 0x880 JUMP JUMPDEST PUSH1 0x1F NOT DUP5 AND PUSH2 0x82F DUP7 PUSH2 0x610 JUMP JUMPDEST PUSH0 JUMPDEST DUP3 DUP2 LT ISZERO PUSH2 0x856 JUMPI DUP5 DUP10 ADD MLOAD DUP3 SSTORE PUSH1 0x1 DUP3 ADD SWAP2 POP PUSH1 0x20 DUP6 ADD SWAP5 POP PUSH1 0x20 DUP2 ADD SWAP1 POP PUSH2 0x831 JUMP JUMPDEST DUP7 DUP4 LT ISZERO PUSH2 0x873 JUMPI DUP5 DUP10 ADD MLOAD PUSH2 0x86F PUSH1 0x1F DUP10 AND DUP3 PUSH2 0x782 JUMP JUMPDEST DUP4 SSTORE POP JUMPDEST PUSH1 0x1 PUSH1 0x2 DUP9 MUL ADD DUP9 SSTORE POP POP POP JUMPDEST POP POP POP POP POP POP JUMP JUMPDEST PUSH0 PUSH20 0xFFFFFFFFFFFFFFFFFFFFFFFFFFFFFFFFFFFFFFFF DUP3 AND SWAP1 POP SWAP2 SWAP1 POP JUMP JUMPDEST PUSH0 PUSH2 0x8B1 DUP3 PUSH2 0x888 JUMP JUMPDEST SWAP1 POP SWAP2 SWAP1 POP JUMP JUMPDEST PUSH2 0x8C1 DUP2 PUSH2 0x8A7 JUMP JUMPDEST DUP3 MSTORE POP POP JUMP JUMPDEST PUSH0 PUSH1 0x20 DUP3 ADD SWAP1 POP PUSH2 0x8DA PUSH0 DUP4 ADD DUP5 PUSH2 0x8B8 JUMP JUMPDEST SWAP3 SWAP2 POP POP JUMP JUMPDEST PUSH2 0x27F6 DUP1 PUSH2 0x8ED PUSH0 CODECOPY PUSH0 RETURN INVALID PUSH1 0x80 PUSH1 0x40 MSTORE PUSH1 0x4 CALLDATASIZE LT PUSH2 0x169 JUMPI PUSH0 CALLDATALOAD PUSH1 0xE0 SHR DUP1 PUSH4 0x715018A6 GT PUSH2 0xD0 JUMPI DUP1 PUSH4 0xBDBA1743 GT PUSH2 0x89 JUMPI DUP1 PUSH4 0xDD62ED3E GT PUSH2 0x63 JUMPI DUP1 PUSH4 0xDD62ED3E EQ PUSH2 0x57F JUMPI DUP1 PUSH4 0xE086E5EC EQ PUSH2 0x5BB JUMPI DUP1 PUSH4 0xF2FDE38B EQ PUSH2 0x5D1 JUMPI DUP1 PUSH4 0xFF201114 EQ PUSH2 0x5F9 JUMPI PUSH2 0x170 JUMP JUMPDEST DUP1 PUSH4 0xBDBA1743 EQ PUSH2 0x4CB JUMPI DUP1 PUSH4 0xC30A0F25 EQ PUSH2 0x507 JUMPI DUP1 PUSH4 0xD2D7231F EQ PUSH2 0x543 JUMPI PUSH2 0x170 JUMP JUMPDEST DUP1 PUSH4 0x715018A6 EQ PUSH2 0x3D3 JUMPI DUP1 PUSH4 0x743BAD1F EQ PUSH2 0x3E9 JUMPI DUP1 PUSH4 0x8DA5CB5B EQ PUSH2 0x411 JUMPI DUP1 PUSH4 0x95D89B41 EQ PUSH2 0x43B JUMPI DUP1 PUSH4 0xA9059CBB EQ PUSH2 0x465 JUMPI DUP1 PUSH4 0xAAA6444C EQ PUSH2 0x4A1 JUMPI PUSH2 0x170 JUMP JUMPDEST DUP1 PUSH4 0x43785DC9 GT PUSH2 0x122 JUMPI DUP1 PUSH4 0x43785DC9 EQ PUSH2 0x2A6 JUMPI DUP1 PUSH4 0x46E3077D EQ PUSH2 0x2CE JUMPI DUP1 PUSH4 0x4FD66EAE EQ PUSH2 0x2F6 JUMPI DUP1 PUSH4 0x557BBF7F EQ PUSH2 0x333 JUMPI DUP1 PUSH4 0x6F447586 EQ PUSH2 0x36F JUMPI DUP1 PUSH4 0x70A08231 EQ PUSH2 0x397 JUMPI PUSH2 0x170 JUMP JUMPDEST DUP1 PUSH4 0x6FDDE03 EQ PUSH2 0x174 JUMPI DUP1 PUSH4 0x95EA7B3 EQ PUSH2 0x19E JUMPI DUP1 PUSH4 0x18160DDD EQ PUSH2 0x1DA JUMPI DUP1 PUSH4 0x23B872DD EQ PUSH2 0x204 JUMPI DUP1 PUSH4 0x313CE567 EQ PUSH2 0x240 JUMPI DUP1 PUSH4 0x33939064 EQ PUSH2 0x26A JUMPI PUSH2 0x170 JUMP JUMPDEST CALLDATASIZE PUSH2 0x170 JUMPI STOP JUMPDEST PUSH0 PUSH0 REVERT JUMPDEST CALLVALUE DUP1 ISZERO PUSH2 0x17F JUMPI PUSH0 PUSH0 REVERT JUMPDEST POP PUSH2 0x188 PUSH2 0x637 JUMP JUMPDEST PUSH1 0x40 MLOAD PUSH2 0x195 SWAP2 SWAP1 PUSH2 0x1B06 JUMP JUMPDEST PUSH1 0x40 MLOAD DUP1 SWAP2 SUB SWAP1 RETURN JUMPDEST CALLVALUE DUP1 ISZERO PUSH2 0x1A9 JUMPI PUSH0 PUSH0 REVERT JUMPDEST POP PUSH2 0x1C4 PUSH1 0x4 DUP1 CALLDATASIZE SUB DUP2 ADD SWAP1 PUSH2 0x1BF SWAP2 SWAP1 PUSH2 0x1BC4 JUMP JUMPDEST PUSH2 0x6C7 JUMP JUMPDEST PUSH1 0x40 MLOAD PUSH2 0x1D1 SWAP2 SWAP1 PUSH2 0x1C1C JUMP JUMPDEST PUSH1 0x40 MLOAD DUP1 SWAP2 SUB SWAP1 RETURN JUMPDEST CALLVALUE DUP1 ISZERO PUSH2 0x1E5 JUMPI PUSH0 PUSH0 REVERT JUMPDEST POP PUSH2 0x1EE PUSH2 0x6E9 JUMP JUMPDEST PUSH1 0x40 MLOAD PUSH2 0x1FB SWAP2 SWAP1 PUSH2 0x1C44 JUMP JUMPDEST PUSH1 0x40 MLOAD DUP1 SWAP2 SUB SWAP1 RETURN JUMPDEST CALLVALUE DUP1 ISZERO PUSH2 0x20F JUMPI PUSH0 PUSH0 REVERT JUMPDEST POP PUSH2 0x22A PUSH1 0x4 DUP1 CALLDATASIZE SUB DUP2 ADD SWAP1 PUSH2 0x225 SWAP2 SWAP1 PUSH2 0x1C5D JUMP JUMPDEST PUSH2 0x6F2 JUMP JUMPDEST PUSH1 0x40 MLOAD PUSH2 0x237 SWAP2 SWAP1 PUSH2 0x1C1C JUMP JUMPDEST PUSH1 0x40 MLOAD DUP1 SWAP2 SUB SWAP1 RETURN JUMPDEST CALLVALUE DUP1 ISZERO PUSH2 0x24B JUMPI PUSH0 PUSH0 REVERT JUMPDEST POP PUSH2 0x254 PUSH2 0x720 JUMP JUMPDEST PUSH1 0x40 MLOAD PUSH2 0x261 SWAP2 SWAP1 PUSH2 0x1CC8 JUMP JUMPDEST PUSH1 0x40 MLOAD DUP1 SWAP2 SUB SWAP1 RETURN JUMPDEST CALLVALUE DUP1 ISZERO PUSH2 0x275 JUMPI PUSH0 PUSH0 REVERT JUMPDEST POP PUSH2 0x290 PUSH1 0x4 DUP1 CALLDATASIZE SUB DUP2 ADD SWAP1 PUSH2 0x28B SWAP2 SWAP1 PUSH2 0x1CE1 JUMP JUMPDEST PUSH2 0x728 JUMP JUMPDEST PUSH1 0x40 MLOAD PUSH2 0x29D SWAP2 SWAP1 PUSH2 0x1C44 JUMP JUMPDEST PUSH1 0x40 MLOAD DUP1 SWAP2 SUB SWAP1 RETURN JUMPDEST CALLVALUE DUP1 ISZERO PUSH2 0x2B1 JUMPI PUSH0 PUSH0 REVERT JUMPDEST POP PUSH2 0x2CC PUSH1 0x4 DUP1 CALLDATASIZE SUB DUP2 ADD SWAP1 PUSH2 0x2C7 SWAP2 SWAP1 PUSH2 0x1BC4 JUMP JUMPDEST PUSH2 0x73D JUMP JUMPDEST STOP JUMPDEST CALLVALUE DUP1 ISZERO PUSH2 0x2D9 JUMPI PUSH0 PUSH0 REVERT JUMPDEST POP PUSH2 0x2F4 PUSH1 0x4 DUP1 CALLDATASIZE SUB DUP2 ADD SWAP1 PUSH2 0x2EF SWAP2 SWAP1 PUSH2 0x1E6B JUMP JUMPDEST PUSH2 0x753 JUMP JUMPDEST STOP JUMPDEST CALLVALUE DUP1 ISZERO PUSH2 0x301 JUMPI PUSH0 PUSH0 REVERT JUMPDEST POP PUSH2 0x31C PUSH1 0x4 DUP1 CALLDATASIZE SUB DUP2 ADD SWAP1 PUSH2 0x317 SWAP2 SWAP1 PUSH2 0x1CE1 JUMP JUMPDEST PUSH2 0x9A6 JUMP JUMPDEST PUSH1 0x40 MLOAD PUSH2 0x32A SWAP3 SWAP2 SWAP1 PUSH2 0x1EEB JUMP JUMPDEST PUSH1 0x40 MLOAD DUP1 SWAP2 SUB SWAP1 RETURN JUMPDEST CALLVALUE DUP1 ISZERO PUSH2 0x33E JUMPI PUSH0 PUSH0 REVERT JUMPDEST POP PUSH2 0x359 PUSH1 0x4 DUP1 CALLDATASIZE SUB DUP2 ADD SWAP1 PUSH2 0x354 SWAP2 SWAP1 PUSH2 0x1F12 JUMP JUMPDEST PUSH2 0xA2D JUMP JUMPDEST PUSH1 0x40 MLOAD PUSH2 0x366 SWAP2 SWAP1 PUSH2 0x1C1C JUMP JUMPDEST PUSH1 0x40 MLOAD DUP1 SWAP2 SUB SWAP1 RETURN JUMPDEST CALLVALUE DUP1 ISZERO PUSH2 0x37A JUMPI PUSH0 PUSH0 REVERT JUMPDEST POP PUSH2 0x395 PUSH1 0x4 DUP1 CALLDATASIZE SUB DUP2 ADD SWAP1 PUSH2 0x390 SWAP2 SWAP1 PUSH2 0x1F3D JUMP JUMPDEST PUSH2 0xA53 JUMP JUMPDEST STOP JUMPDEST CALLVALUE DUP1 ISZERO PUSH2 0x3A2 JUMPI PUSH0 PUSH0 REVERT JUMPDEST POP PUSH2 0x3BD PUSH1 0x4 DUP1 CALLDATASIZE SUB DUP2 ADD SWAP1 PUSH2 0x3B8 SWAP2 SWAP1 PUSH2 0x1CE1 JUMP JUMPDEST PUSH2 0xB6A JUMP JUMPDEST PUSH1 0x40 MLOAD PUSH2 0x3CA SWAP2 SWAP1 PUSH2 0x1C44 JUMP JUMPDEST PUSH1 0x40 MLOAD DUP1 SWAP2 SUB SWAP1 RETURN JUMPDEST CALLVALUE DUP1 ISZERO PUSH2 0x3DE JUMPI PUSH0 PUSH0 REVERT JUMPDEST POP PUSH2 0x3E7 PUSH2 0xBAF JUMP JUMPDEST STOP JUMPDEST CALLVALUE DUP1 ISZERO PUSH2 0x3F4 JUMPI PUSH0 PUSH0 REVERT JUMPDEST POP PUSH2 0x40F PUSH1 0x4 DUP1 CALLDATASIZE SUB DUP2 ADD SWAP1 PUSH2 0x40A SWAP2 SWAP1 PUSH2 0x22C3 JUMP JUMPDEST PUSH2 0xBC2 JUMP JUMPDEST STOP JUMPDEST CALLVALUE DUP1 ISZERO PUSH2 0x41C JUMPI PUSH0 PUSH0 REVERT JUMPDEST POP PUSH2 0x425 PUSH2 0xF75 JUMP JUMPDEST PUSH1 0x40 MLOAD PUSH2 0x432 SWAP2 SWAP1 PUSH2 0x23A6 JUMP JUMPDEST PUSH1 0x40 MLOAD DUP1 SWAP2 SUB SWAP1 RETURN JUMPDEST CALLVALUE DUP1 ISZERO PUSH2 0x446 JUMPI PUSH0 PUSH0 REVERT JUMPDEST POP PUSH2 0x44F PUSH2 0xF9D JUMP JUMPDEST PUSH1 0x40 MLOAD PUSH2 0x45C SWAP2 SWAP1 PUSH2 0x1B06 JUMP JUMPDEST PUSH1 0x40 MLOAD DUP1 SWAP2 SUB SWAP1 RETURN JUMPDEST CALLVALUE DUP1 ISZERO PUSH2 0x470 JUMPI PUSH0 PUSH0 REVERT JUMPDEST POP PUSH2 0x48B PUSH1 0x4 DUP1 CALLDATASIZE SUB DUP2 ADD SWAP1 PUSH2 0x486 SWAP2 SWAP1 PUSH2 0x1BC4 JUMP JUMPDEST PUSH2 0x102D JUMP JUMPDEST PUSH1 0x40 MLOAD PUSH2 0x498 SWAP2 SWAP1 PUSH2 0x1C1C JUMP JUMPDEST PUSH1 0x40 MLOAD DUP1 SWAP2 SUB SWAP1 RETURN JUMPDEST CALLVALUE DUP1 ISZERO PUSH2 0x4AC JUMPI PUSH0 PUSH0 REVERT JUMPDEST POP PUSH2 0x4B5 PUSH2 0x104F JUMP JUMPDEST PUSH1 0x40 MLOAD PUSH2 0x4C2 SWAP2 SWAP1 PUSH2 0x1C44 JUMP JUMPDEST PUSH1 0x40 MLOAD DUP1 SWAP2 SUB SWAP1 RETURN JUMPDEST CALLVALUE DUP1 ISZERO PUSH2 0x4D6 JUMPI PUSH0 PUSH0 REVERT JUMPDEST POP PUSH2 0x4F1 PUSH1 0x4 DUP1 CALLDATASIZE SUB DUP2 ADD SWAP1 PUSH2 0x4EC SWAP2 SWAP1 PUSH2 0x1CE1 JUMP JUMPDEST PUSH2 0x105B JUMP JUMPDEST PUSH1 0x40 MLOAD PUSH2 0x4FE SWAP2 SWAP1 PUSH2 0x1C44 JUMP JUMPDEST PUSH1 0x40 MLOAD DUP1 SWAP2 SUB SWAP1 RETURN JUMPDEST CALLVALUE DUP1 ISZERO PUSH2 0x512 JUMPI PUSH0 PUSH0 REVERT JUMPDEST POP PUSH2 0x52D PUSH1 0x4 DUP1 CALLDATASIZE SUB DUP2 ADD SWAP1 PUSH2 0x528 SWAP2 SWAP1 PUSH2 0x1F12 JUMP JUMPDEST PUSH2 0x1070 JUMP JUMPDEST PUSH1 0x40 MLOAD PUSH2 0x53A SWAP2 SWAP1 PUSH2 0x1C1C JUMP JUMPDEST PUSH1 0x40 MLOAD DUP1 SWAP2 SUB SWAP1 RETURN JUMPDEST CALLVALUE DUP1 ISZERO PUSH2 0x54E JUMPI PUSH0 PUSH0 REVERT JUMPDEST POP PUSH2 0x569 PUSH1 0x4 DUP1 CALLDATASIZE SUB DUP2 ADD SWAP1 PUSH2 0x564 SWAP2 SWAP1 PUSH2 0x23BF JUMP JUMPDEST PUSH2 0x108D JUMP JUMPDEST PUSH1 0x40 MLOAD PUSH2 0x576 SWAP2 SWAP1 PUSH2 0x1C44 JUMP JUMPDEST PUSH1 0x40 MLOAD DUP1 SWAP2 SUB SWAP1 RETURN JUMPDEST CALLVALUE DUP1 ISZERO PUSH2 0x58A JUMPI PUSH0 PUSH0 REVERT JUMPDEST POP PUSH2 0x5A5 PUSH1 0x4 DUP1 CALLDATASIZE SUB DUP2 ADD SWAP1 PUSH2 0x5A0 SWAP2 SWAP1 PUSH2 0x23EA JUMP JUMPDEST PUSH2 0x1160 JUMP JUMPDEST PUSH1 0x40 MLOAD PUSH2 0x5B2 SWAP2 SWAP1 PUSH2 0x1C44 JUMP JUMPDEST PUSH1 0x40 MLOAD DUP1 SWAP2 SUB SWAP1 RETURN JUMPDEST CALLVALUE DUP1 ISZERO PUSH2 0x5C6 JUMPI PUSH0 PUSH0 REVERT JUMPDEST POP PUSH2 0x5CF PUSH2 0x11E2 JUMP JUMPDEST STOP JUMPDEST CALLVALUE DUP1 ISZERO PUSH2 0x5DC JUMPI PUSH0 PUSH0 REVERT JUMPDEST POP PUSH2 0x5F7 PUSH1 0x4 DUP1 CALLDATASIZE SUB DUP2 ADD SWAP1 PUSH2 0x5F2 SWAP2 SWAP1 PUSH2 0x1CE1 JUMP JUMPDEST PUSH2 0x1237 JUMP JUMPDEST STOP JUMPDEST CALLVALUE DUP1 ISZERO PUSH2 0x604 JUMPI PUSH0 PUSH0 REVERT JUMPDEST POP PUSH2 0x61F PUSH1 0x4 DUP1 CALLDATASIZE SUB DUP2 ADD SWAP1 PUSH2 0x61A SWAP2 SWAP1 PUSH2 0x23BF JUMP JUMPDEST PUSH2 0x12BB JUMP JUMPDEST PUSH1 0x40 MLOAD PUSH2 0x62E SWAP4 SWAP3 SWAP2 SWAP1 PUSH2 0x2428 JUMP JUMPDEST PUSH1 0x40 MLOAD DUP1 SWAP2 SUB SWAP1 RETURN JUMPDEST PUSH1 0x60 PUSH1 0x3 DUP1 SLOAD PUSH2 0x646 SWAP1 PUSH2 0x248A JUMP JUMPDEST DUP1 PUSH1 0x1F ADD PUSH1 0x20 DUP1 SWAP2 DIV MUL PUSH1 0x20 ADD PUSH1 0x40 MLOAD SWAP1 DUP2 ADD PUSH1 0x40 MSTORE DUP1 SWAP3 SWAP2 SWAP1 DUP2 DUP2 MSTORE PUSH1 0x20 ADD DUP3 DUP1 SLOAD PUSH2 0x672 SWAP1 PUSH2 0x248A JUMP JUMPDEST DUP1 ISZERO PUSH2 0x6BD JUMPI DUP1 PUSH1 0x1F LT PUSH2 0x694 JUMPI PUSH2 0x100 DUP1 DUP4 SLOAD DIV MUL DUP4 MSTORE SWAP2 PUSH1 0x20 ADD SWAP2 PUSH2 0x6BD JUMP JUMPDEST DUP3 ADD SWAP2 SWAP1 PUSH0 MSTORE PUSH1 0x20 PUSH0 KECCAK256 SWAP1 JUMPDEST DUP2 SLOAD DUP2 MSTORE SWAP1 PUSH1 0x1 ADD SWAP1 PUSH1 0x20 ADD DUP1 DUP4 GT PUSH2 0x6A0 JUMPI DUP3 SWAP1 SUB PUSH1 0x1F AND DUP3 ADD SWAP2 JUMPDEST POP POP POP POP POP SWAP1 POP SWAP1 JUMP JUMPDEST PUSH0 PUSH0 PUSH2 0x6D1 PUSH2 0x12F0 JUMP JUMPDEST SWAP1 POP PUSH2 0x6DE DUP2 DUP6 DUP6 PUSH2 0x12F7 JUMP JUMPDEST PUSH1 0x1 SWAP2 POP POP SWAP3 SWAP2 POP POP JUMP JUMPDEST PUSH0 PUSH1 0x2 SLOAD SWAP1 POP SWAP1 JUMP JUMPDEST PUSH0 PUSH0 PUSH2 0x6FC PUSH2 0x12F0 JUMP JUMPDEST SWAP1 POP PUSH2 0x709 DUP6 DUP3 DUP6 PUSH2 0x1309 JUMP JUMPDEST PUSH2 0x714 DUP6 DUP6 DUP6 PUSH2 0x139C JUMP JUMPDEST PUSH1 0x1 SWAP2 POP POP SWAP4 SWAP3 POP POP POP JUMP JUMPDEST PUSH0 PUSH1 0x12 SWAP1 POP SWAP1 JUMP JUMPDEST PUSH1 0x9 PUSH1 0x20 MSTORE DUP1 PUSH0 MSTORE PUSH1 0x40 PUSH0 KECCAK256 PUSH0 SWAP2 POP SWAP1 POP SLOAD DUP2 JUMP JUMPDEST PUSH2 0x745 PUSH2 0x148C JUMP JUMPDEST PUSH2 0x74F DUP3 DUP3 PUSH2 0x1513 JUMP JUMPDEST POP POP JUMP JUMPDEST PUSH2 0x75B PUSH2 0x148C JUMP JUMPDEST PUSH2 0x763 PUSH2 0x1592 JUMP JUMPDEST PUSH0 PUSH20 0xFFFFFFFFFFFFFFFFFFFFFFFFFFFFFFFFFFFFFFFF AND DUP5 PUSH20 0xFFFFFFFFFFFFFFFFFFFFFFFFFFFFFFFFFFFFFFFF AND SUB PUSH2 0x7D1 JUMPI PUSH1 0x40 MLOAD PUSH32 0x8C379A000000000000000000000000000000000000000000000000000000000 DUP2 MSTORE PUSH1 0x4 ADD PUSH2 0x7C8 SWAP1 PUSH2 0x2504 JUMP JUMPDEST PUSH1 0x40 MLOAD DUP1 SWAP2 SUB SWAP1 REVERT JUMPDEST PUSH0 DUP4 GT PUSH2 0x813 JUMPI PUSH1 0x40 MLOAD PUSH32 0x8C379A000000000000000000000000000000000000000000000000000000000 DUP2 MSTORE PUSH1 0x4 ADD PUSH2 0x80A SWAP1 PUSH2 0x256C JUMP JUMPDEST PUSH1 0x40 MLOAD DUP1 SWAP2 SUB SWAP1 REVERT JUMPDEST PUSH1 0x7 PUSH0 DUP3 DUP2 MSTORE PUSH1 0x20 ADD SWAP1 DUP2 MSTORE PUSH1 0x20 ADD PUSH0 KECCAK256 PUSH0 SWAP1 SLOAD SWAP1 PUSH2 0x100 EXP SWAP1 DIV PUSH1 0xFF AND ISZERO PUSH2 0x871 JUMPI PUSH1 0x40 MLOAD PUSH32 0x8C379A000000000000000000000000000000000000000000000000000000000 DUP2 MSTORE PUSH1 0x4 ADD PUSH2 0x868 SWAP1 PUSH2 0x25D4 JUMP JUMPDEST PUSH1 0x40 MLOAD DUP1 SWAP2 SUB SWAP1 REVERT JUMPDEST PUSH1 0x1 PUSH1 0x7 PUSH0 DUP4 DUP2 MSTORE PUSH1 0x20 ADD SWAP1 DUP2 MSTORE PUSH1 0x20 ADD PUSH0 KECCAK256 PUSH0 PUSH2 0x100 EXP DUP2 SLOAD DUP2 PUSH1 0xFF MUL NOT AND SWAP1 DUP4 ISZERO ISZERO MUL OR SWAP1 SSTORE POP PUSH0 PUSH2 0x8A4 DUP5 PUSH2 0x108D JUMP JUMPDEST SWAP1 POP DUP1 PUSH1 0x8 PUSH0 DUP8 PUSH20 0xFFFFFFFFFFFFFFFFFFFFFFFFFFFFFFFFFFFFFFFF AND PUSH20 0xFFFFFFFFFFFFFFFFFFFFFFFFFFFFFFFFFFFFFFFF AND DUP2 MSTORE PUSH1 0x20 ADD SWAP1 DUP2 MSTORE PUSH1 0x20 ADD PUSH0 KECCAK256 PUSH0 DUP3 DUP3 SLOAD PUSH2 0x8F2 SWAP2 SWAP1 PUSH2 0x261F JUMP JUMPDEST SWAP3 POP POP DUP2 SWAP1 SSTORE POP TIMESTAMP PUSH1 0x9 PUSH0 DUP8 PUSH20 0xFFFFFFFFFFFFFFFFFFFFFFFFFFFFFFFFFFFFFFFF AND PUSH20 0xFFFFFFFFFFFFFFFFFFFFFFFFFFFFFFFFFFFFFFFF AND DUP2 MSTORE PUSH1 0x20 ADD SWAP1 DUP2 MSTORE PUSH1 0x20 ADD PUSH0 KECCAK256 DUP2 SWAP1 SSTORE POP PUSH2 0x945 DUP6 DUP3 PUSH2 0x1513 JUMP JUMPDEST DUP5 PUSH20 0xFFFFFFFFFFFFFFFFFFFFFFFFFFFFFFFFFFFFFFFF AND PUSH32 0xA5F7ED56245238DCBB9DE06D5811029A127263B6018B6B20823AE032E33ECB2D DUP6 DUP4 DUP7 PUSH1 0x40 MLOAD PUSH2 0x98F SWAP4 SWAP3 SWAP2 SWAP1 PUSH2 0x2652 JUMP JUMPDEST PUSH1 0x40 MLOAD DUP1 SWAP2 SUB SWAP1 LOG2 POP PUSH2 0x9A0 PUSH2 0x15E1 JUMP JUMPDEST POP POP POP POP JUMP JUMPDEST PUSH0 PUSH0 PUSH1 0x8 PUSH0 DUP5 PUSH20 0xFFFFFFFFFFFFFFFFFFFFFFFFFFFFFFFFFFFFFFFF AND PUSH20 0xFFFFFFFFFFFFFFFFFFFFFFFFFFFFFFFFFFFFFFFF AND DUP2 MSTORE PUSH1 0x20 ADD SWAP1 DUP2 MSTORE PUSH1 0x20 ADD PUSH0 KECCAK256 SLOAD PUSH1 0x9 PUSH0 DUP6 PUSH20 0xFFFFFFFFFFFFFFFFFFFFFFFFFFFFFFFFFFFFFFFF AND PUSH20 0xFFFFFFFFFFFFFFFFFFFFFFFFFFFFFFFFFFFFFFFF AND DUP2 MSTORE PUSH1 0x20 ADD SWAP1 DUP2 MSTORE PUSH1 0x20 ADD PUSH0 KECCAK256 SLOAD SWAP2 POP SWAP2 POP SWAP2 POP SWAP2 JUMP JUMPDEST PUSH0 PUSH1 0x7 PUSH0 DUP4 DUP2 MSTORE PUSH1 0x20 ADD SWAP1 DUP2 MSTORE PUSH1 0x20 ADD PUSH0 KECCAK256 PUSH0 SWAP1 SLOAD SWAP1 PUSH2 0x100 EXP SWAP1 DIV PUSH1 0xFF AND SWAP1 POP SWAP2 SWAP1 POP JUMP JUMPDEST PUSH2 0xA5B PUSH2 0x148C JUMP JUMPDEST PUSH1 0xA DUP1 SLOAD SWAP1 POP DUP5 LT PUSH2 0xACD JUMPI PUSH1 0xA PUSH1 0x40 MLOAD DUP1 PUSH1 0x60 ADD PUSH1 0x40 MSTORE DUP1 DUP6 DUP2 MSTORE PUSH1 0x20 ADD DUP5 DUP2 MSTORE PUSH1 0x20 ADD DUP4 DUP2 MSTORE POP SWAP1 DUP1 PUSH1 0x1 DUP2 SLOAD ADD DUP1 DUP3 SSTORE DUP1 SWAP2 POP POP PUSH1 0x1 SWAP1 SUB SWAP1 PUSH0 MSTORE PUSH1 0x20 PUSH0 KECCAK256 SWAP1 PUSH1 0x3 MUL ADD PUSH0 SWAP1 SWAP2 SWAP1 SWAP2 SWAP1 SWAP2 POP PUSH0 DUP3 ADD MLOAD DUP2 PUSH0 ADD SSTORE PUSH1 0x20 DUP3 ADD MLOAD DUP2 PUSH1 0x1 ADD SSTORE PUSH1 0x40 DUP3 ADD MLOAD DUP2 PUSH1 0x2 ADD SSTORE POP POP PUSH2 0xB28 JUMP JUMPDEST PUSH1 0x40 MLOAD DUP1 PUSH1 0x60 ADD PUSH1 0x40 MSTORE DUP1 DUP5 DUP2 MSTORE PUSH1 0x20 ADD DUP4 DUP2 MSTORE PUSH1 0x20 ADD DUP3 DUP2 MSTORE POP PUSH1 0xA DUP6 DUP2 SLOAD DUP2 LT PUSH2 0xAFC JUMPI PUSH2 0xAFB PUSH2 0x268E JUMP JUMPDEST JUMPDEST SWAP1 PUSH0 MSTORE PUSH1 0x20 PUSH0 KECCAK256 SWAP1 PUSH1 0x3 MUL ADD PUSH0 DUP3 ADD MLOAD DUP2 PUSH0 ADD SSTORE PUSH1 0x20 DUP3 ADD MLOAD DUP2 PUSH1 0x1 ADD SSTORE PUSH1 0x40 DUP3 ADD MLOAD DUP2 PUSH1 0x2 ADD SSTORE SWAP1 POP POP JUMPDEST DUP4 PUSH32 0x66C998C4F16E6680D6471C293823EBFB3B9F053A14111A2E24F54578C4C7975F DUP5 DUP5 DUP5 PUSH1 0x40 MLOAD PUSH2 0xB5C SWAP4 SWAP3 SWAP2 SWAP1 PUSH2 0x2428 JUMP JUMPDEST PUSH1 0x40 MLOAD DUP1 SWAP2 SUB SWAP1 LOG2 POP POP POP POP JUMP JUMPDEST PUSH0 PUSH0 PUSH0 DUP4 PUSH20 0xFFFFFFFFFFFFFFFFFFFFFFFFFFFFFFFFFFFFFFFF AND PUSH20 0xFFFFFFFFFFFFFFFFFFFFFFFFFFFFFFFFFFFFFFFF AND DUP2 MSTORE PUSH1 0x20 ADD SWAP1 DUP2 MSTORE PUSH1 0x20 ADD PUSH0 KECCAK256 SLOAD SWAP1 POP SWAP2 SWAP1 POP JUMP JUMPDEST PUSH2 0xBB7 PUSH2 0x148C JUMP JUMPDEST PUSH2 0xBC0 PUSH0 PUSH2 0x15EB JUMP JUMPDEST JUMP JUMPDEST PUSH2 0xBCA PUSH2 0x148C JUMP JUMPDEST PUSH2 0xBD2 PUSH2 0x1592 JUMP JUMPDEST DUP3 MLOAD DUP5 MLOAD EQ PUSH2 0xC16 JUMPI PUSH1 0x40 MLOAD PUSH32 0x8C379A000000000000000000000000000000000000000000000000000000000 DUP2 MSTORE PUSH1 0x4 ADD PUSH2 0xC0D SWAP1 PUSH2 0x2705 JUMP JUMPDEST PUSH1 0x40 MLOAD DUP1 SWAP2 SUB SWAP1 REVERT JUMPDEST DUP2 MLOAD DUP5 MLOAD EQ PUSH2 0xC5A JUMPI PUSH1 0x40 MLOAD PUSH32 0x8C379A000000000000000000000000000000000000000000000000000000000 DUP2 MSTORE PUSH1 0x4 ADD PUSH2 0xC51 SWAP1 PUSH2 0x2705 JUMP JUMPDEST PUSH1 0x40 MLOAD DUP1 SWAP2 SUB SWAP1 REVERT JUMPDEST DUP1 MLOAD DUP5 MLOAD EQ PUSH2 0xC9E JUMPI PUSH1 0x40 MLOAD PUSH32 0x8C379A000000000000000000000000000000000000000000000000000000000 DUP2 MSTORE PUSH1 0x4 ADD PUSH2 0xC95 SWAP1 PUSH2 0x2705 JUMP JUMPDEST PUSH1 0x40 MLOAD DUP1 SWAP2 SUB SWAP1 REVERT JUMPDEST PUSH0 PUSH0 SWAP1 POP JUMPDEST DUP5 MLOAD DUP2 LT ISZERO PUSH2 0xF66 JUMPI PUSH0 PUSH20 0xFFFFFFFFFFFFFFFFFFFFFFFFFFFFFFFFFFFFFFFF AND DUP6 DUP3 DUP2 MLOAD DUP2 LT PUSH2 0xCD6 JUMPI PUSH2 0xCD5 PUSH2 0x268E JUMP JUMPDEST JUMPDEST PUSH1 0x20 MUL PUSH1 0x20 ADD ADD MLOAD PUSH20 0xFFFFFFFFFFFFFFFFFFFFFFFFFFFFFFFFFFFFFFFF AND EQ ISZERO DUP1 ISZERO PUSH2 0xD1B JUMPI POP PUSH0 DUP5 DUP3 DUP2 MLOAD DUP2 LT PUSH2 0xD11 JUMPI PUSH2 0xD10 PUSH2 0x268E JUMP JUMPDEST JUMPDEST PUSH1 0x20 MUL PUSH1 0x20 ADD ADD MLOAD GT JUMPDEST DUP1 ISZERO PUSH2 0xD5C JUMPI POP PUSH1 0x7 PUSH0 DUP4 DUP4 DUP2 MLOAD DUP2 LT PUSH2 0xD38 JUMPI PUSH2 0xD37 PUSH2 0x268E JUMP JUMPDEST JUMPDEST PUSH1 0x20 MUL PUSH1 0x20 ADD ADD MLOAD DUP2 MSTORE PUSH1 0x20 ADD SWAP1 DUP2 MSTORE PUSH1 0x20 ADD PUSH0 KECCAK256 PUSH0 SWAP1 SLOAD SWAP1 PUSH2 0x100 EXP SWAP1 DIV PUSH1 0xFF AND ISZERO JUMPDEST ISZERO PUSH2 0xF59 JUMPI PUSH1 0x1 PUSH1 0x7 PUSH0 DUP5 DUP5 DUP2 MLOAD DUP2 LT PUSH2 0xD79 JUMPI PUSH2 0xD78 PUSH2 0x268E JUMP JUMPDEST JUMPDEST PUSH1 0x20 MUL PUSH1 0x20 ADD ADD MLOAD DUP2 MSTORE PUSH1 0x20 ADD SWAP1 DUP2 MSTORE PUSH1 0x20 ADD PUSH0 KECCAK256 PUSH0 PUSH2 0x100 EXP DUP2 SLOAD DUP2 PUSH1 0xFF MUL NOT AND SWAP1 DUP4 ISZERO ISZERO MUL OR SWAP1 SSTORE POP PUSH0 PUSH2 0xDC8 DUP6 DUP4 DUP2 MLOAD DUP2 LT PUSH2 0xDBB JUMPI PUSH2 0xDBA PUSH2 0x268E JUMP JUMPDEST JUMPDEST PUSH1 0x20 MUL PUSH1 0x20 ADD ADD MLOAD PUSH2 0x108D JUMP JUMPDEST SWAP1 POP DUP1 PUSH1 0x8 PUSH0 DUP9 DUP6 DUP2 MLOAD DUP2 LT PUSH2 0xDE1 JUMPI PUSH2 0xDE0 PUSH2 0x268E JUMP JUMPDEST JUMPDEST PUSH1 0x20 MUL PUSH1 0x20 ADD ADD MLOAD PUSH20 0xFFFFFFFFFFFFFFFFFFFFFFFFFFFFFFFFFFFFFFFF AND PUSH20 0xFFFFFFFFFFFFFFFFFFFFFFFFFFFFFFFFFFFFFFFF AND DUP2 MSTORE PUSH1 0x20 ADD SWAP1 DUP2 MSTORE PUSH1 0x20 ADD PUSH0 KECCAK256 PUSH0 DUP3 DUP3 SLOAD PUSH2 0xE30 SWAP2 SWAP1 PUSH2 0x261F JUMP JUMPDEST SWAP3 POP POP DUP2 SWAP1 SSTORE POP TIMESTAMP PUSH1 0x9 PUSH0 DUP9 DUP6 DUP2 MLOAD DUP2 LT PUSH2 0xE4E JUMPI PUSH2 0xE4D PUSH2 0x268E JUMP JUMPDEST JUMPDEST PUSH1 0x20 MUL PUSH1 0x20 ADD ADD MLOAD PUSH20 0xFFFFFFFFFFFFFFFFFFFFFFFFFFFFFFFFFFFFFFFF AND PUSH20 0xFFFFFFFFFFFFFFFFFFFFFFFFFFFFFFFFFFFFFFFF AND DUP2 MSTORE PUSH1 0x20 ADD SWAP1 DUP2 MSTORE PUSH1 0x20 ADD PUSH0 KECCAK256 DUP2 SWAP1 SSTORE POP PUSH2 0xEB7 DUP7 DUP4 DUP2 MLOAD DUP2 LT PUSH2 0xEA9 JUMPI PUSH2 0xEA8 PUSH2 0x268E JUMP JUMPDEST JUMPDEST PUSH1 0x20 MUL PUSH1 0x20 ADD ADD MLOAD DUP3 PUSH2 0x1513 JUMP JUMPDEST DUP6 DUP3 DUP2 MLOAD DUP2 LT PUSH2 0xECA JUMPI PUSH2 0xEC9 PUSH2 0x268E JUMP JUMPDEST JUMPDEST PUSH1 0x20 MUL PUSH1 0x20 ADD ADD MLOAD PUSH20 0xFFFFFFFFFFFFFFFFFFFFFFFFFFFFFFFFFFFFFFFF AND PUSH32 0xA5F7ED56245238DCBB9DE06D5811029A127263B6018B6B20823AE032E33ECB2D DUP7 DUP5 DUP2 MLOAD DUP2 LT PUSH2 0xF1C JUMPI PUSH2 0xF1B PUSH2 0x268E JUMP JUMPDEST JUMPDEST PUSH1 0x20 MUL PUSH1 0x20 ADD ADD MLOAD DUP4 DUP8 DUP7 DUP2 MLOAD DUP2 LT PUSH2 0xF38 JUMPI PUSH2 0xF37 PUSH2 0x268E JUMP JUMPDEST JUMPDEST PUSH1 0x20 MUL PUSH1 0x20 ADD ADD MLOAD PUSH1 0x40 MLOAD PUSH2 0xF4F SWAP4 SWAP3 SWAP2 SWAP1 PUSH2 0x2652 JUMP JUMPDEST PUSH1 0x40 MLOAD DUP1 SWAP2 SUB SWAP1 LOG2 POP JUMPDEST DUP1 DUP1 PUSH1 0x1 ADD SWAP2 POP POP PUSH2 0xCA3 JUMP JUMPDEST POP PUSH2 0xF6F PUSH2 0x15E1 JUMP JUMPDEST POP POP POP POP JUMP JUMPDEST PUSH0 PUSH1 0x5 PUSH0 SWAP1 SLOAD SWAP1 PUSH2 0x100 EXP SWAP1 DIV PUSH20 0xFFFFFFFFFFFFFFFFFFFFFFFFFFFFFFFFFFFFFFFF AND SWAP1 POP SWAP1 JUMP JUMPDEST PUSH1 0x60 PUSH1 0x4 DUP1 SLOAD PUSH2 0xFAC SWAP1 PUSH2 0x248A JUMP JUMPDEST DUP1 PUSH1 0x1F ADD PUSH1 0x20 DUP1 SWAP2 DIV MUL PUSH1 0x20 ADD PUSH1 0x40 MLOAD SWAP1 DUP2 ADD PUSH1 0x40 MSTORE DUP1 SWAP3 SWAP2 SWAP1 DUP2 DUP2 MSTORE PUSH1 0x20 ADD DUP3 DUP1 SLOAD PUSH2 0xFD8 SWAP1 PUSH2 0x248A JUMP JUMPDEST DUP1 ISZERO PUSH2 0x1023 JUMPI DUP1 PUSH1 0x1F LT PUSH2 0xFFA JUMPI PUSH2 0x100 DUP1 DUP4 SLOAD DIV MUL DUP4 MSTORE SWAP2 PUSH1 0x20 ADD SWAP2 PUSH2 0x1023 JUMP JUMPDEST DUP3 ADD SWAP2 SWAP1 PUSH0 MSTORE PUSH1 0x20 PUSH0 KECCAK256 SWAP1 JUMPDEST DUP2 SLOAD DUP2 MSTORE SWAP1 PUSH1 0x1 ADD SWAP1 PUSH1 0x20 ADD DUP1 DUP4 GT PUSH2 0x1006 JUMPI DUP3 SWAP1 SUB PUSH1 0x1F AND DUP3 ADD SWAP2 JUMPDEST POP POP POP POP POP SWAP1 POP SWAP1 JUMP JUMPDEST PUSH0 PUSH0 PUSH2 0x1037 PUSH2 0x12F0 JUMP JUMPDEST SWAP1 POP PUSH2 0x1044 DUP2 DUP6 DUP6 PUSH2 0x139C JUMP JUMPDEST PUSH1 0x1 SWAP2 POP POP SWAP3 SWAP2 POP POP JUMP JUMPDEST PUSH0 PUSH1 0xA DUP1 SLOAD SWAP1 POP SWAP1 POP SWAP1 JUMP JUMPDEST PUSH1 0x8 PUSH1 0x20 MSTORE DUP1 PUSH0 MSTORE PUSH1 0x40 PUSH0 KECCAK256 PUSH0 SWAP2 POP SWAP1 POP SLOAD DUP2 JUMP JUMPDEST PUSH1 0x7 PUSH1 0x20 MSTORE DUP1 PUSH0 MSTORE PUSH1 0x40 PUSH0 KECCAK256 PUSH0 SWAP2 POP SLOAD SWAP1 PUSH2 0x100 EXP SWAP1 DIV PUSH1 0xFF AND DUP2 JUMP JUMPDEST PUSH0 PUSH0 PUSH0 SWAP1 POP JUMPDEST PUSH1 0xA DUP1 SLOAD SWAP1 POP DUP2 LT ISZERO PUSH2 0x1133 JUMPI PUSH1 0xA DUP2 DUP2 SLOAD DUP2 LT PUSH2 0x10B4 JUMPI PUSH2 0x10B3 PUSH2 0x268E JUMP JUMPDEST JUMPDEST SWAP1 PUSH0 MSTORE PUSH1 0x20 PUSH0 KECCAK256 SWAP1 PUSH1 0x3 MUL ADD PUSH0 ADD SLOAD DUP4 LT ISZERO DUP1 ISZERO PUSH2 0x10F5 JUMPI POP PUSH1 0xA DUP2 DUP2 SLOAD DUP2 LT PUSH2 0x10E1 JUMPI PUSH2 0x10E0 PUSH2 0x268E JUMP JUMPDEST JUMPDEST SWAP1 PUSH0 MSTORE PUSH1 0x20 PUSH0 KECCAK256 SWAP1 PUSH1 0x3 MUL ADD PUSH1 0x1 ADD SLOAD DUP4 GT ISZERO JUMPDEST ISZERO PUSH2 0x1126 JUMPI PUSH1 0xA DUP2 DUP2 SLOAD DUP2 LT PUSH2 0x110E JUMPI PUSH2 0x110D PUSH2 0x268E JUMP JUMPDEST JUMPDEST SWAP1 PUSH0 MSTORE PUSH1 0x20 PUSH0 KECCAK256 SWAP1 PUSH1 0x3 MUL ADD PUSH1 0x2 ADD SLOAD SWAP2 POP POP PUSH2 0x115B JUMP JUMPDEST DUP1 DUP1 PUSH1 0x1 ADD SWAP2 POP POP PUSH2 0x1093 JUMP JUMPDEST POP PUSH1 0xA PUSH0 DUP2 SLOAD DUP2 LT PUSH2 0x1148 JUMPI PUSH2 0x1147 PUSH2 0x268E JUMP JUMPDEST JUMPDEST SWAP1 PUSH0 MSTORE PUSH1 0x20 PUSH0 KECCAK256 SWAP1 PUSH1 0x3 MUL ADD PUSH1 0x2 ADD SLOAD SWAP1 POP JUMPDEST SWAP2 SWAP1 POP JUMP JUMPDEST PUSH0 PUSH1 0x1 PUSH0 DUP5 PUSH20 0xFFFFFFFFFFFFFFFFFFFFFFFFFFFFFFFFFFFFFFFF AND PUSH20 0xFFFFFFFFFFFFFFFFFFFFFFFFFFFFFFFFFFFFFFFF AND DUP2 MSTORE PUSH1 0x20 ADD SWAP1 DUP2 MSTORE PUSH1 0x20 ADD PUSH0 KECCAK256 PUSH0 DUP4 PUSH20 0xFFFFFFFFFFFFFFFFFFFFFFFFFFFFFFFFFFFFFFFF AND PUSH20 0xFFFFFFFFFFFFFFFFFFFFFFFFFFFFFFFFFFFFFFFF AND DUP2 MSTORE PUSH1 0x20 ADD SWAP1 DUP2 MSTORE PUSH1 0x20 ADD PUSH0 KECCAK256 SLOAD SWAP1 POP SWAP3 SWAP2 POP POP JUMP JUMPDEST PUSH2 0x11EA PUSH2 0x148C JUMP JUMPDEST PUSH2 0x11F2 PUSH2 0xF75 JUMP JUMPDEST PUSH20 0xFFFFFFFFFFFFFFFFFFFFFFFFFFFFFFFFFFFFFFFF AND PUSH2 0x8FC SELFBALANCE SWAP1 DUP2 ISZERO MUL SWAP1 PUSH1 0x40 MLOAD PUSH0 PUSH1 0x40 MLOAD DUP1 DUP4 SUB DUP2 DUP6 DUP9 DUP9 CALL SWAP4 POP POP POP POP ISZERO DUP1 ISZERO PUSH2 0x1234 JUMPI RETURNDATASIZE PUSH0 PUSH0 RETURNDATACOPY RETURNDATASIZE PUSH0 REVERT JUMPDEST POP JUMP JUMPDEST PUSH2 0x123F PUSH2 0x148C JUMP JUMPDEST PUSH0 PUSH20 0xFFFFFFFFFFFFFFFFFFFFFFFFFFFFFFFFFFFFFFFF AND DUP2 PUSH20 0xFFFFFFFFFFFFFFFFFFFFFFFFFFFFFFFFFFFFFFFF AND SUB PUSH2 0x12AF JUMPI PUSH0 PUSH1 0x40 MLOAD PUSH32 0x1E4FBDF700000000000000000000000000000000000000000000000000000000 DUP2 MSTORE PUSH1 0x4 ADD PUSH2 0x12A6 SWAP2 SWAP1 PUSH2 0x23A6 JUMP JUMPDEST PUSH1 0x40 MLOAD DUP1 SWAP2 SUB SWAP1 REVERT JUMPDEST PUSH2 0x12B8 DUP2 PUSH2 0x15EB JUMP JUMPDEST POP JUMP JUMPDEST PUSH1 0xA DUP2 DUP2 SLOAD DUP2 LT PUSH2 0x12CA JUMPI PUSH0 DUP1 REVERT JUMPDEST SWAP1 PUSH0 MSTORE PUSH1 0x20 PUSH0 KECCAK256 SWAP1 PUSH1 0x3 MUL ADD PUSH0 SWAP2 POP SWAP1 POP DUP1 PUSH0 ADD SLOAD SWAP1 DUP1 PUSH1 0x1 ADD SLOAD SWAP1 DUP1 PUSH1 0x2 ADD SLOAD SWAP1 POP DUP4 JUMP JUMPDEST PUSH0 CALLER SWAP1 POP SWAP1 JUMP JUMPDEST PUSH2 0x1304 DUP4 DUP4 DUP4 PUSH1 0x1 PUSH2 0x16AE JUMP JUMPDEST POP POP POP JUMP JUMPDEST PUSH0 PUSH2 0x1314 DUP5 DUP5 PUSH2 0x1160 JUMP JUMPDEST SWAP1 POP PUSH32 0xFFFFFFFFFFFFFFFFFFFFFFFFFFFFFFFFFFFFFFFFFFFFFFFFFFFFFFFFFFFFFFFF DUP2 LT ISZERO PUSH2 0x1396 JUMPI DUP2 DUP2 LT ISZERO PUSH2 0x1387 JUMPI DUP3 DUP2 DUP4 PUSH1 0x40 MLOAD PUSH32 0xFB8F41B200000000000000000000000000000000000000000000000000000000 DUP2 MSTORE PUSH1 0x4 ADD PUSH2 0x137E SWAP4 SWAP3 SWAP2 SWAP1 PUSH2 0x2723 JUMP JUMPDEST PUSH1 0x40 MLOAD DUP1 SWAP2 SUB SWAP1 REVERT JUMPDEST PUSH2 0x1395 DUP5 DUP5 DUP5 DUP5 SUB PUSH0 PUSH2 0x16AE JUMP JUMPDEST JUMPDEST POP POP POP POP JUMP JUMPDEST PUSH0 PUSH20 0xFFFFFFFFFFFFFFFFFFFFFFFFFFFFFFFFFFFFFFFF AND DUP4 PUSH20 0xFFFFFFFFFFFFFFFFFFFFFFFFFFFFFFFFFFFFFFFF AND SUB PUSH2 0x140C JUMPI PUSH0 PUSH1 0x40 MLOAD PUSH32 0x96C6FD1E00000000000000000000000000000000000000000000000000000000 DUP2 MSTORE PUSH1 0x4 ADD PUSH2 0x1403 SWAP2 SWAP1 PUSH2 0x23A6 JUMP JUMPDEST PUSH1 0x40 MLOAD DUP1 SWAP2 SUB SWAP1 REVERT JUMPDEST PUSH0 PUSH20 0xFFFFFFFFFFFFFFFFFFFFFFFFFFFFFFFFFFFFFFFF AND DUP3 PUSH20 0xFFFFFFFFFFFFFFFFFFFFFFFFFFFFFFFFFFFFFFFF AND SUB PUSH2 0x147C JUMPI PUSH0 PUSH1 0x40 MLOAD PUSH32 0xEC442F0500000000000000000000000000000000000000000000000000000000 DUP2 MSTORE PUSH1 0x4 ADD PUSH2 0x1473 SWAP2 SWAP1 PUSH2 0x23A6 JUMP JUMPDEST PUSH1 0x40 MLOAD DUP1 SWAP2 SUB SWAP1 REVERT JUMPDEST PUSH2 0x1487 DUP4 DUP4 DUP4 PUSH2 0x187D JUMP JUMPDEST POP POP POP JUMP JUMPDEST PUSH2 0x1494 PUSH2 0x12F0 JUMP JUMPDEST PUSH20 0xFFFFFFFFFFFFFFFFFFFFFFFFFFFFFFFFFFFFFFFF AND PUSH2 0x14B2 PUSH2 0xF75 JUMP JUMPDEST PUSH20 0xFFFFFFFFFFFFFFFFFFFFFFFFFFFFFFFFFFFFFFFF AND EQ PUSH2 0x1511 JUMPI PUSH2 0x14D5 PUSH2 0x12F0 JUMP JUMPDEST PUSH1 0x40 MLOAD PUSH32 0x118CDAA700000000000000000000000000000000000000000000000000000000 DUP2 MSTORE PUSH1 0x4 ADD PUSH2 0x1508 SWAP2 SWAP1 PUSH2 0x23A6 JUMP JUMPDEST PUSH1 0x40 MLOAD DUP1 SWAP2 SUB SWAP1 REVERT JUMPDEST JUMP JUMPDEST PUSH0 PUSH20 0xFFFFFFFFFFFFFFFFFFFFFFFFFFFFFFFFFFFFFFFF AND DUP3 PUSH20 0xFFFFFFFFFFFFFFFFFFFFFFFFFFFFFFFFFFFFFFFF AND SUB PUSH2 0x1583 JUMPI PUSH0 PUSH1 0x40 MLOAD PUSH32 0xEC442F0500000000000000000000000000000000000000000000000000000000 DUP2 MSTORE PUSH1 0x4 ADD PUSH2 0x157A SWAP2 SWAP1 PUSH2 0x23A6 JUMP JUMPDEST PUSH1 0x40 MLOAD DUP1 SWAP2 SUB SWAP1 REVERT JUMPDEST PUSH2 0x158E PUSH0 DUP4 DUP4 PUSH2 0x187D JUMP JUMPDEST POP POP JUMP JUMPDEST PUSH1 0x2 PUSH1 0x6 SLOAD SUB PUSH2 0x15D7 JUMPI PUSH1 0x40 MLOAD PUSH32 0x8C379A000000000000000000000000000000000000000000000000000000000 DUP2 MSTORE PUSH1 0x4 ADD PUSH2 0x15CE SWAP1 PUSH2 0x27A2 JUMP JUMPDEST PUSH1 0x40 MLOAD DUP1 SWAP2 SUB SWAP1 REVERT JUMPDEST PUSH1 0x2 PUSH1 0x6 DUP2 SWAP1 SSTORE POP JUMP JUMPDEST PUSH1 0x1 PUSH1 0x6 DUP2 SWAP1 SSTORE POP JUMP JUMPDEST PUSH0 PUSH1 0x5 PUSH0 SWAP1 SLOAD SWAP1 PUSH2 0x100 EXP SWAP1 DIV PUSH20 0xFFFFFFFFFFFFFFFFFFFFFFFFFFFFFFFFFFFFFFFF AND SWAP1 POP DUP2 PUSH1 0x5 PUSH0 PUSH2 0x100 EXP DUP2 SLOAD DUP2 PUSH20 0xFFFFFFFFFFFFFFFFFFFFFFFFFFFFFFFFFFFFFFFF MUL NOT AND SWAP1 DUP4 PUSH20 0xFFFFFFFFFFFFFFFFFFFFFFFFFFFFFFFFFFFFFFFF AND MUL OR SWAP1 SSTORE POP DUP2 PUSH20 0xFFFFFFFFFFFFFFFFFFFFFFFFFFFFFFFFFFFFFFFF AND DUP2 PUSH20 0xFFFFFFFFFFFFFFFFFFFFFFFFFFFFFFFFFFFFFFFF AND PUSH32 0x8BE0079C531659141344CD1FD0A4F28419497F9722A3DAAFE3B4186F6B6457E0 PUSH1 0x40 MLOAD PUSH1 0x40 MLOAD DUP1 SWAP2 SUB SWAP1 LOG3 POP POP JUMP JUMPDEST PUSH0 PUSH20 0xFFFFFFFFFFFFFFFFFFFFFFFFFFFFFFFFFFFFFFFF AND DUP5 PUSH20 0xFFFFFFFFFFFFFFFFFFFFFFFFFFFFFFFFFFFFFFFF AND SUB PUSH2 0x171E JUMPI PUSH0 PUSH1 0x40 MLOAD PUSH32 0xE602DF0500000000000000000000000000000000000000000000000000000000 DUP2 MSTORE PUSH1 0x4 ADD PUSH2 0x1715 SWAP2 SWAP1 PUSH2 0x23A6 JUMP JUMPDEST PUSH1 0x40 MLOAD DUP1 SWAP2 SUB SWAP1 REVERT JUMPDEST PUSH0 PUSH20 0xFFFFFFFFFFFFFFFFFFFFFFFFFFFFFFFFFFFFFFFF AND DUP4 PUSH20 0xFFFFFFFFFFFFFFFFFFFFFFFFFFFFFFFFFFFFFFFF AND SUB PUSH2 0x178E JUMPI PUSH0 PUSH1 0x40 MLOAD PUSH32 0x94280D6200000000000000000000000000000000000000000000000000000000 DUP2 MSTORE PUSH1 0x4 ADD PUSH2 0x1785 SWAP2 SWAP1 PUSH2 0x23A6 JUMP JUMPDEST PUSH1 0x40 MLOAD DUP1 SWAP2 SUB SWAP1 REVERT JUMPDEST DUP2 PUSH1 0x1 PUSH0 DUP7 PUSH20 0xFFFFFFFFFFFFFFFFFFFFFFFFFFFFFFFFFFFFFFFF AND PUSH20 0xFFFFFFFFFFFFFFFFFFFFFFFFFFFFFFFFFFFFFFFF AND DUP2 MSTORE PUSH1 0x20 ADD SWAP1 DUP2 MSTORE PUSH1 0x20 ADD PUSH0 KECCAK256 PUSH0 DUP6 PUSH20 0xFFFFFFFFFFFFFFFFFFFFFFFFFFFFFFFFFFFFFFFF AND PUSH20 0xFFFFFFFFFFFFFFFFFFFFFFFFFFFFFFFFFFFFFFFF AND DUP2 MSTORE PUSH1 0x20 ADD SWAP1 DUP2 MSTORE PUSH1 0x20 ADD PUSH0 KECCAK256 DUP2 SWAP1 SSTORE POP DUP1 ISZERO PUSH2 0x1877 JUMPI DUP3 PUSH20 0xFFFFFFFFFFFFFFFFFFFFFFFFFFFFFFFFFFFFFFFF AND DUP5 PUSH20 0xFFFFFFFFFFFFFFFFFFFFFFFFFFFFFFFFFFFFFFFF AND PUSH32 0x8C5BE1E5EBEC7D5BD14F71427D1E84F3DD0314C0F7B2291E5B200AC8C7C3B925 DUP5 PUSH1 0x40 MLOAD PUSH2 0x186E SWAP2 SWAP1 PUSH2 0x1C44 JUMP JUMPDEST PUSH1 0x40 MLOAD DUP1 SWAP2 SUB SWAP1 LOG3 JUMPDEST POP POP POP POP JUMP JUMPDEST PUSH0 PUSH20 0xFFFFFFFFFFFFFFFFFFFFFFFFFFFFFFFFFFFFFFFF AND DUP4 PUSH20 0xFFFFFFFFFFFFFFFFFFFFFFFFFFFFFFFFFFFFFFFF AND SUB PUSH2 0x18CD JUMPI DUP1 PUSH1 0x2 PUSH0 DUP3 DUP3 SLOAD PUSH2 0x18C1 SWAP2 SWAP1 PUSH2 0x261F JUMP JUMPDEST SWAP3 POP POP DUP2 SWAP1 SSTORE POP PUSH2 0x199B JUMP JUMPDEST PUSH0 PUSH0 PUSH0 DUP6 PUSH20 0xFFFFFFFFFFFFFFFFFFFFFFFFFFFFFFFFFFFFFFFF AND PUSH20 0xFFFFFFFFFFFFFFFFFFFFFFFFFFFFFFFFFFFFFFFF AND DUP2 MSTORE PUSH1 0x20 ADD SWAP1 DUP2 MSTORE PUSH1 0x20 ADD PUSH0 KECCAK256 SLOAD SWAP1 POP DUP2 DUP2 LT ISZERO PUSH2 0x1956 JUMPI DUP4 DUP2 DUP4 PUSH1 0x40 MLOAD PUSH32 0xE450D38C00000000000000000000000000000000000000000000000000000000 DUP2 MSTORE PUSH1 0x4 ADD PUSH2 0x194D SWAP4 SWAP3 SWAP2 SWAP1 PUSH2 0x2723 JUMP JUMPDEST PUSH1 0x40 MLOAD DUP1 SWAP2 SUB SWAP1 REVERT JUMPDEST DUP2 DUP2 SUB PUSH0 PUSH0 DUP7 PUSH20 0xFFFFFFFFFFFFFFFFFFFFFFFFFFFFFFFFFFFFFFFF AND PUSH20 0xFFFFFFFFFFFFFFFFFFFFFFFFFFFFFFFFFFFFFFFF AND DUP2 MSTORE PUSH1 0x20 ADD SWAP1 DUP2 MSTORE PUSH1 0x20 ADD PUSH0 KECCAK256 DUP2 SWAP1 SSTORE POP POP JUMPDEST PUSH0 PUSH20 0xFFFFFFFFFFFFFFFFFFFFFFFFFFFFFFFFFFFFFFFF AND DUP3 PUSH20 0xFFFFFFFFFFFFFFFFFFFFFFFFFFFFFFFFFFFFFFFF AND SUB PUSH2 0x19E2 JUMPI DUP1 PUSH1 0x2 PUSH0 DUP3 DUP3 SLOAD SUB SWAP3 POP POP DUP2 SWAP1 SSTORE POP PUSH2 0x1A2C JUMP JUMPDEST DUP1 PUSH0 PUSH0 DUP5 PUSH20 0xFFFFFFFFFFFFFFFFFFFFFFFFFFFFFFFFFFFFFFFF AND PUSH20 0xFFFFFFFFFFFFFFFFFFFFFFFFFFFFFFFFFFFFFFFF AND DUP2 MSTORE PUSH1 0x20 ADD SWAP1 DUP2 MSTORE PUSH1 0x20 ADD PUSH0 KECCAK256 PUSH0 DUP3 DUP3 SLOAD ADD SWAP3 POP POP DUP2 SWAP1 SSTORE POP JUMPDEST DUP2 PUSH20 0xFFFFFFFFFFFFFFFFFFFFFFFFFFFFFFFFFFFFFFFF AND DUP4 PUSH20 0xFFFFFFFFFFFFFFFFFFFFFFFFFFFFFFFFFFFFFFFF AND PUSH32 0xDDF252AD1BE2C89B69C2B068FC378DAA952BA7F163C4A11628F55A4DF523B3EF DUP4 PUSH1 0x40 MLOAD PUSH2 0x1A89 SWAP2 SWAP1 PUSH2 0x1C44 JUMP JUMPDEST PUSH1 0x40 MLOAD DUP1 SWAP2 SUB SWAP1 LOG3 POP POP POP JUMP JUMPDEST PUSH0 DUP2 MLOAD SWAP1 POP SWAP2 SWAP1 POP JUMP JUMPDEST PUSH0 DUP3 DUP3 MSTORE PUSH1 0x20 DUP3 ADD SWAP1 POP SWAP3 SWAP2 POP POP JUMP JUMPDEST DUP3 DUP2 DUP4 MCOPY PUSH0 DUP4 DUP4 ADD MSTORE POP POP POP JUMP JUMPDEST PUSH0 PUSH1 0x1F NOT PUSH1 0x1F DUP4 ADD AND SWAP1 POP SWAP2 SWAP1 POP JUMP JUMPDEST PUSH0 PUSH2 0x1AD8 DUP3 PUSH2 0x1A96 JUMP JUMPDEST PUSH2 0x1AE2 DUP2 DUP6 PUSH2 0x1AA0 JUMP JUMPDEST SWAP4 POP PUSH2 0x1AF2 DUP2 DUP6 PUSH1 0x20 DUP7 ADD PUSH2 0x1AB0 JUMP JUMPDEST PUSH2 0x1AFB DUP2 PUSH2 0x1ABE JUMP JUMPDEST DUP5 ADD SWAP2 POP POP SWAP3 SWAP2 POP POP JUMP JUMPDEST PUSH0 PUSH1 0x20 DUP3 ADD SWAP1 POP DUP2 DUP2 SUB PUSH0 DUP4 ADD MSTORE PUSH2 0x1B1E DUP2 DUP5 PUSH2 0x1ACE JUMP JUMPDEST SWAP1 POP SWAP3 SWAP2 POP POP JUMP JUMPDEST PUSH0 PUSH1 0x40 MLOAD SWAP1 POP SWAP1 JUMP JUMPDEST PUSH0 PUSH0 REVERT JUMPDEST PUSH0 PUSH0 REVERT JUMPDEST PUSH0 PUSH20 0xFFFFFFFFFFFFFFFFFFFFFFFFFFFFFFFFFFFFFFFF DUP3 AND SWAP1 POP SWAP2 SWAP1 POP JUMP JUMPDEST PUSH0 PUSH2 0x1B60 DUP3 PUSH2 0x1B37 JUMP JUMPDEST SWAP1 POP SWAP2 SWAP1 POP JUMP JUMPDEST PUSH2 0x1B70 DUP2 PUSH2 0x1B56 JUMP JUMPDEST DUP2 EQ PUSH2 0x1B7A JUMPI PUSH0 PUSH0 REVERT JUMPDEST POP JUMP JUMPDEST PUSH0 DUP2 CALLDATALOAD SWAP1 POP PUSH2 0x1B8B DUP2 PUSH2 0x1B67 JUMP JUMPDEST SWAP3 SWAP2 POP POP JUMP JUMPDEST PUSH0 DUP2 SWAP1 POP SWAP2 SWAP1 POP JUMP JUMPDEST PUSH2 0x1BA3 DUP2 PUSH2 0x1B91 JUMP JUMPDEST DUP2 EQ PUSH2 0x1BAD JUMPI PUSH0 PUSH0 REVERT JUMPDEST POP JUMP JUMPDEST PUSH0 DUP2 CALLDATALOAD SWAP1 POP PUSH2 0x1BBE DUP2 PUSH2 0x1B9A JUMP JUMPDEST SWAP3 SWAP2 POP POP JUMP JUMPDEST PUSH0 PUSH0 PUSH1 0x40 DUP4 DUP6 SUB SLT ISZERO PUSH2 0x1BDA JUMPI PUSH2 0x1BD9 PUSH2 0x1B2F JUMP JUMPDEST JUMPDEST PUSH0 PUSH2 0x1BE7 DUP6 DUP3 DUP7 ADD PUSH2 0x1B7D JUMP JUMPDEST SWAP3 POP POP PUSH1 0x20 PUSH2 0x1BF8 DUP6 DUP3 DUP7 ADD PUSH2 0x1BB0 JUMP JUMPDEST SWAP2 POP POP SWAP3 POP SWAP3 SWAP1 POP JUMP JUMPDEST PUSH0 DUP2 ISZERO ISZERO SWAP1 POP SWAP2 SWAP1 POP JUMP JUMPDEST PUSH2 0x1C16 DUP2 PUSH2 0x1C02 JUMP JUMPDEST DUP3 MSTORE POP POP JUMP JUMPDEST PUSH0 PUSH1 0x20 DUP3 ADD SWAP1 POP PUSH2 0x1C2F PUSH0 DUP4 ADD DUP5 PUSH2 0x1C0D JUMP JUMPDEST SWAP3 SWAP2 POP POP JUMP JUMPDEST PUSH2 0x1C3E DUP2 PUSH2 0x1B91 JUMP JUMPDEST DUP3 MSTORE POP POP JUMP JUMPDEST PUSH0 PUSH1 0x20 DUP3 ADD SWAP1 POP PUSH2 0x1C57 PUSH0 DUP4 ADD DUP5 PUSH2 0x1C35 JUMP JUMPDEST SWAP3 SWAP2 POP POP JUMP JUMPDEST PUSH0 PUSH0 PUSH0 PUSH1 0x60 DUP5 DUP7 SUB SLT ISZERO PUSH2 0x1C74 JUMPI PUSH2 0x1C73 PUSH2 0x1B2F JUMP JUMPDEST JUMPDEST PUSH0 PUSH2 0x1C81 DUP7 DUP3 DUP8 ADD PUSH2 0x1B7D JUMP JUMPDEST SWAP4 POP POP PUSH1 0x20 PUSH2 0x1C92 DUP7 DUP3 DUP8 ADD PUSH2 0x1B7D JUMP JUMPDEST SWAP3 POP POP PUSH1 0x40 PUSH2 0x1CA3 DUP7 DUP3 DUP8 ADD PUSH2 0x1BB0 JUMP JUMPDEST SWAP2 POP POP SWAP3 POP SWAP3 POP SWAP3 JUMP JUMPDEST PUSH0 PUSH1 0xFF DUP3 AND SWAP1 POP SWAP2 SWAP1 POP JUMP JUMPDEST PUSH2 0x1CC2 DUP2 PUSH2 0x1CAD JUMP JUMPDEST DUP3 MSTORE POP POP JUMP JUMPDEST PUSH0 PUSH1 0x20 DUP3 ADD SWAP1 POP PUSH2 0x1CDB PUSH0 DUP4 ADD DUP5 PUSH2 0x1CB9 JUMP JUMPDEST SWAP3 SWAP2 POP POP JUMP JUMPDEST PUSH0 PUSH1 0x20 DUP3 DUP5 SUB SLT ISZERO PUSH2 0x1CF6 JUMPI PUSH2 0x1CF5 PUSH2 0x1B2F JUMP JUMPDEST JUMPDEST PUSH0 PUSH2 0x1D03 DUP5 DUP3 DUP6 ADD PUSH2 0x1B7D JUMP JUMPDEST SWAP2 POP POP SWAP3 SWAP2 POP POP JUMP JUMPDEST PUSH0 PUSH0 REVERT JUMPDEST PUSH0 PUSH0 REVERT JUMPDEST PUSH32 0x4E487B7100000000000000000000000000000000000000000000000000000000 PUSH0 MSTORE PUSH1 0x41 PUSH1 0x4 MSTORE PUSH1 0x24 PUSH0 REVERT JUMPDEST PUSH2 0x1D4A DUP3 PUSH2 0x1ABE JUMP JUMPDEST DUP2 ADD DUP2 DUP2 LT PUSH8 0xFFFFFFFFFFFFFFFF DUP3 GT OR ISZERO PUSH2 0x1D69 JUMPI PUSH2 0x1D68 PUSH2 0x1D14 JUMP JUMPDEST JUMPDEST DUP1 PUSH1 0x40 MSTORE POP POP POP JUMP JUMPDEST PUSH0 PUSH2 0x1D7B PUSH2 0x1B26 JUMP JUMPDEST SWAP1 POP PUSH2 0x1D87 DUP3 DUP3 PUSH2 0x1D41 JUMP JUMPDEST SWAP2 SWAP1 POP JUMP JUMPDEST PUSH0 PUSH8 0xFFFFFFFFFFFFFFFF DUP3 GT ISZERO PUSH2 0x1DA6 JUMPI PUSH2 0x1DA5 PUSH2 0x1D14 JUMP JUMPDEST JUMPDEST PUSH2 0x1DAF DUP3 PUSH2 0x1ABE JUMP JUMPDEST SWAP1 POP PUSH1 0x20 DUP2 ADD SWAP1 POP SWAP2 SWAP1 POP JUMP JUMPDEST DUP3 DUP2 DUP4 CALLDATACOPY PUSH0 DUP4 DUP4 ADD MSTORE POP POP POP JUMP JUMPDEST PUSH0 PUSH2 0x1DDC PUSH2 0x1DD7 DUP5 PUSH2 0x1D8C JUMP JUMPDEST PUSH2 0x1D72 JUMP JUMPDEST SWAP1 POP DUP3 DUP2 MSTORE PUSH1 0x20 DUP2 ADD DUP5 DUP5 DUP5 ADD GT ISZERO PUSH2 0x1DF8 JUMPI PUSH2 0x1DF7 PUSH2 0x1D10 JUMP JUMPDEST JUMPDEST PUSH2 0x1E03 DUP5 DUP3 DUP6 PUSH2 0x1DBC JUMP JUMPDEST POP SWAP4 SWAP3 POP POP POP JUMP JUMPDEST PUSH0 DUP3 PUSH1 0x1F DUP4 ADD SLT PUSH2 0x1E1F JUMPI PUSH2 0x1E1E PUSH2 0x1D0C JUMP JUMPDEST JUMPDEST DUP2 CALLDATALOAD PUSH2 0x1E2F DUP5 DUP3 PUSH1 0x20 DUP7 ADD PUSH2 0x1DCA JUMP JUMPDEST SWAP2 POP POP SWAP3 SWAP2 POP POP JUMP JUMPDEST PUSH0 DUP2 SWAP1 POP SWAP2 SWAP1 POP JUMP JUMPDEST PUSH2 0x1E4A DUP2 PUSH2 0x1E38 JUMP JUMPDEST DUP2 EQ PUSH2 0x1E54 JUMPI PUSH0 PUSH0 REVERT JUMPDEST POP JUMP JUMPDEST PUSH0 DUP2 CALLDATALOAD SWAP1 POP PUSH2 0x1E65 DUP2 PUSH2 0x1E41 JUMP JUMPDEST SWAP3 SWAP2 POP POP JUMP JUMPDEST PUSH0 PUSH0 PUSH0 PUSH0 PUSH1 0x80 DUP6 DUP8 SUB SLT ISZERO PUSH2 0x1E83 JUMPI PUSH2 0x1E82 PUSH2 0x1B2F JUMP JUMPDEST JUMPDEST PUSH0 PUSH2 0x1E90 DUP8 DUP3 DUP9 ADD PUSH2 0x1B7D JUMP JUMPDEST SWAP5 POP POP PUSH1 0x20 PUSH2 0x1EA1 DUP8 DUP3 DUP9 ADD PUSH2 0x1BB0 JUMP JUMPDEST SWAP4 POP POP PUSH1 0x40 DUP6 ADD CALLDATALOAD PUSH8 0xFFFFFFFFFFFFFFFF DUP2 GT ISZERO PUSH2 0x1EC2 JUMPI PUSH2 0x1EC1 PUSH2 0x1B33 JUMP JUMPDEST JUMPDEST PUSH2 0x1ECE DUP8 DUP3 DUP9 ADD PUSH2 0x1E0B JUMP JUMPDEST SWAP3 POP POP PUSH1 0x60 PUSH2 0x1EDF DUP8 DUP3 DUP9 ADD PUSH2 0x1E57 JUMP JUMPDEST SWAP2 POP POP SWAP3 SWAP6 SWAP2 SWAP5 POP SWAP3 POP JUMP JUMPDEST PUSH0 PUSH1 0x40 DUP3 ADD SWAP1 POP PUSH2 0x1EFE PUSH0 DUP4 ADD DUP6 PUSH2 0x1C35 JUMP JUMPDEST PUSH2 0x1F0B PUSH1 0x20 DUP4 ADD DUP5 PUSH2 0x1C35 JUMP JUMPDEST SWAP4 SWAP3 POP POP POP JUMP JUMPDEST PUSH0 PUSH1 0x20 DUP3 DUP5 SUB SLT ISZERO PUSH2 0x1F27 JUMPI PUSH2 0x1F26 PUSH2 0x1B2F JUMP JUMPDEST JUMPDEST PUSH0 PUSH2 0x1F34 DUP5 DUP3 DUP6 ADD PUSH2 0x1E57 JUMP JUMPDEST SWAP2 POP POP SWAP3 SWAP2 POP POP JUMP JUMPDEST PUSH0 PUSH0 PUSH0 PUSH0 PUSH1 0x80 DUP6 DUP8 SUB SLT ISZERO PUSH2 0x1F55 JUMPI PUSH2 0x1F54 PUSH2 0x1B2F JUMP JUMPDEST JUMPDEST PUSH0 PUSH2 0x1F62 DUP8 DUP3 DUP9 ADD PUSH2 0x1BB0 JUMP JUMPDEST SWAP5 POP POP PUSH1 0x20 PUSH2 0x1F73 DUP8 DUP3 DUP9 ADD PUSH2 0x1BB0 JUMP JUMPDEST SWAP4 POP POP PUSH1 0x40 PUSH2 0x1F84 DUP8 DUP3 DUP9 ADD PUSH2 0x1BB0 JUMP JUMPDEST SWAP3 POP POP PUSH1 0x60 PUSH2 0x1F95 DUP8 DUP3 DUP9 ADD PUSH2 0x1BB0 JUMP JUMPDEST SWAP2 POP POP SWAP3 SWAP6 SWAP2 SWAP5 POP SWAP3 POP JUMP JUMPDEST PUSH0 PUSH8 0xFFFFFFFFFFFFFFFF DUP3 GT ISZERO PUSH2 0x1FBB JUMPI PUSH2 0x1FBA PUSH2 0x1D14 JUMP JUMPDEST JUMPDEST PUSH1 0x20 DUP3 MUL SWAP1 POP PUSH1 0x20 DUP2 ADD SWAP1 POP SWAP2 SWAP1 POP JUMP JUMPDEST PUSH0 PUSH0 REVERT JUMPDEST PUSH0 PUSH2 0x1FE2 PUSH2 0x1FDD DUP5 PUSH2 0x1FA1 JUMP JUMPDEST PUSH2 0x1D72 JUMP JUMPDEST SWAP1 POP DUP1 DUP4 DUP3 MSTORE PUSH1 0x20 DUP3 ADD SWAP1 POP PUSH1 0x20 DUP5 MUL DUP4 ADD DUP6 DUP2 GT ISZERO PUSH2 0x2005 JUMPI PUSH2 0x2004 PUSH2 0x1FCC JUMP JUMPDEST JUMPDEST DUP4 JUMPDEST DUP2 DUP2 LT ISZERO PUSH2 0x202E JUMPI DUP1 PUSH2 0x201A DUP9 DUP3 PUSH2 0x1B7D JUMP JUMPDEST DUP5 MSTORE PUSH1 0x20 DUP5 ADD SWAP4 POP POP PUSH1 0x20 DUP2 ADD SWAP1 POP PUSH2 0x2007 JUMP JUMPDEST POP POP POP SWAP4 SWAP3 POP POP POP JUMP JUMPDEST PUSH0 DUP3 PUSH1 0x1F DUP4 ADD SLT PUSH2 0x204C JUMPI PUSH2 0x204B PUSH2 0x1D0C JUMP JUMPDEST JUMPDEST DUP2 CALLDATALOAD PUSH2 0x205C DUP5 DUP3 PUSH1 0x20 DUP7 ADD PUSH2 0x1FD0 JUMP JUMPDEST SWAP2 POP POP SWAP3 SWAP2 POP POP JUMP JUMPDEST PUSH0 PUSH8 0xFFFFFFFFFFFFFFFF DUP3 GT ISZERO PUSH2 0x207F JUMPI PUSH2 0x207E PUSH2 0x1D14 JUMP JUMPDEST JUMPDEST PUSH1 0x20 DUP3 MUL SWAP1 POP PUSH1 0x20 DUP2 ADD SWAP1 POP SWAP2 SWAP1 POP JUMP JUMPDEST PUSH0 PUSH2 0x20A2 PUSH2 0x209D DUP5 PUSH2 0x2065 JUMP JUMPDEST PUSH2 0x1D72 JUMP JUMPDEST SWAP1 POP DUP1 DUP4 DUP3 MSTORE PUSH1 0x20 DUP3 ADD SWAP1 POP PUSH1 0x20 DUP5 MUL DUP4 ADD DUP6 DUP2 GT ISZERO PUSH2 0x20C5 JUMPI PUSH2 0x20C4 PUSH2 0x1FCC JUMP JUMPDEST JUMPDEST DUP4 JUMPDEST DUP2 DUP2 LT ISZERO PUSH2 0x20EE JUMPI DUP1 PUSH2 0x20DA DUP9 DUP3 PUSH2 0x1BB0 JUMP JUMPDEST DUP5 MSTORE PUSH1 0x20 DUP5 ADD SWAP4 POP POP PUSH1 0x20 DUP2 ADD SWAP1 POP PUSH2 0x20C7 JUMP JUMPDEST POP POP POP SWAP4 SWAP3 POP POP POP JUMP JUMPDEST PUSH0 DUP3 PUSH1 0x1F DUP4 ADD SLT PUSH2 0x210C JUMPI PUSH2 0x210B PUSH2 0x1D0C JUMP JUMPDEST JUMPDEST DUP2 CALLDATALOAD PUSH2 0x211C DUP5 DUP3 PUSH1 0x20 DUP7 ADD PUSH2 0x2090 JUMP JUMPDEST SWAP2 POP POP SWAP3 SWAP2 POP POP JUMP JUMPDEST PUSH0 PUSH8 0xFFFFFFFFFFFFFFFF DUP3 GT ISZERO PUSH2 0x213F JUMPI PUSH2 0x213E PUSH2 0x1D14 JUMP JUMPDEST JUMPDEST PUSH1 0x20 DUP3 MUL SWAP1 POP PUSH1 0x20 DUP2 ADD SWAP1 POP SWAP2 SWAP1 POP JUMP JUMPDEST PUSH0 PUSH2 0x2162 PUSH2 0x215D DUP5 PUSH2 0x2125 JUMP JUMPDEST PUSH2 0x1D72 JUMP JUMPDEST SWAP1 POP DUP1 DUP4 DUP3 MSTORE PUSH1 0x20 DUP3 ADD SWAP1 POP PUSH1 0x20 DUP5 MUL DUP4 ADD DUP6 DUP2 GT ISZERO PUSH2 0x2185 JUMPI PUSH2 0x2184 PUSH2 0x1FCC JUMP JUMPDEST JUMPDEST DUP4 JUMPDEST DUP2 DUP2 LT ISZERO PUSH2 0x21CC JUMPI DUP1 CALLDATALOAD PUSH8 0xFFFFFFFFFFFFFFFF DUP2 GT ISZERO PUSH2 0x21AA JUMPI PUSH2 0x21A9 PUSH2 0x1D0C JUMP JUMPDEST JUMPDEST DUP1 DUP7 ADD PUSH2 0x21B7 DUP10 DUP3 PUSH2 0x1E0B JUMP JUMPDEST DUP6 MSTORE PUSH1 0x20 DUP6 ADD SWAP5 POP POP POP PUSH1 0x20 DUP2 ADD SWAP1 POP PUSH2 0x2187 JUMP JUMPDEST POP POP POP SWAP4 SWAP3 POP POP POP JUMP JUMPDEST PUSH0 DUP3 PUSH1 0x1F DUP4 ADD SLT PUSH2 0x21EA JUMPI PUSH2 0x21E9 PUSH2 0x1D0C JUMP JUMPDEST JUMPDEST DUP2 CALLDATALOAD PUSH2 0x21FA DUP5 DUP3 PUSH1 0x20 DUP7 ADD PUSH2 0x2150 JUMP JUMPDEST SWAP2 POP POP SWAP3 SWAP2 POP POP JUMP JUMPDEST PUSH0 PUSH8 0xFFFFFFFFFFFFFFFF DUP3 GT ISZERO PUSH2 0x221D JUMPI PUSH2 0x221C PUSH2 0x1D14 JUMP JUMPDEST JUMPDEST PUSH1 0x20 DUP3 MUL SWAP1 POP PUSH1 0x20 DUP2 ADD SWAP1 POP SWAP2 SWAP1 POP JUMP JUMPDEST PUSH0 PUSH2 0x2240 PUSH2 0x223B DUP5 PUSH2 0x2203 JUMP JUMPDEST PUSH2 0x1D72 JUMP JUMPDEST SWAP1 POP DUP1 DUP4 DUP3 MSTORE PUSH1 0x20 DUP3 ADD SWAP1 POP PUSH1 0x20 DUP5 MUL DUP4 ADD DUP6 DUP2 GT ISZERO PUSH2 0x2263 JUMPI PUSH2 0x2262 PUSH2 0x1FCC JUMP JUMPDEST JUMPDEST DUP4 JUMPDEST DUP2 DUP2 LT ISZERO PUSH2 0x228C JUMPI DUP1 PUSH2 0x2278 DUP9 DUP3 PUSH2 0x1E57 JUMP JUMPDEST DUP5 MSTORE PUSH1 0x20 DUP5 ADD SWAP4 POP POP PUSH1 0x20 DUP2 ADD SWAP1 POP PUSH2 0x2265 JUMP JUMPDEST POP POP POP SWAP4 SWAP3 POP POP POP JUMP JUMPDEST PUSH0 DUP3 PUSH1 0x1F DUP4 ADD SLT PUSH2 0x22AA JUMPI PUSH2 0x22A9 PUSH2 0x1D0C JUMP JUMPDEST JUMPDEST DUP2 CALLDATALOAD PUSH2 0x22BA DUP5 DUP3 PUSH1 0x20 DUP7 ADD PUSH2 0x222E JUMP JUMPDEST SWAP2 POP POP SWAP3 SWAP2 POP POP JUMP JUMPDEST PUSH0 PUSH0 PUSH0 PUSH0 PUSH1 0x80 DUP6 DUP8 SUB SLT ISZERO PUSH2 0x22DB JUMPI PUSH2 0x22DA PUSH2 0x1B2F JUMP JUMPDEST JUMPDEST PUSH0 DUP6 ADD CALLDATALOAD PUSH8 0xFFFFFFFFFFFFFFFF DUP2 GT ISZERO PUSH2 0x22F8 JUMPI PUSH2 0x22F7 PUSH2 0x1B33 JUMP JUMPDEST JUMPDEST PUSH2 0x2304 DUP8 DUP3 DUP9 ADD PUSH2 0x2038 JUMP JUMPDEST SWAP5 POP POP PUSH1 0x20 DUP6 ADD CALLDATALOAD PUSH8 0xFFFFFFFFFFFFFFFF DUP2 GT ISZERO PUSH2 0x2325 JUMPI PUSH2 0x2324 PUSH2 0x1B33 JUMP JUMPDEST JUMPDEST PUSH2 0x2331 DUP8 DUP3 DUP9 ADD PUSH2 0x20F8 JUMP JUMPDEST SWAP4 POP POP PUSH1 0x40 DUP6 ADD CALLDATALOAD PUSH8 0xFFFFFFFFFFFFFFFF DUP2 GT ISZERO PUSH2 0x2352 JUMPI PUSH2 0x2351 PUSH2 0x1B33 JUMP JUMPDEST JUMPDEST PUSH2 0x235E DUP8 DUP3 DUP9 ADD PUSH2 0x21D6 JUMP JUMPDEST SWAP3 POP POP PUSH1 0x60 DUP6 ADD CALLDATALOAD PUSH8 0xFFFFFFFFFFFFFFFF DUP2 GT ISZERO PUSH2 0x237F JUMPI PUSH2 0x237E PUSH2 0x1B33 JUMP JUMPDEST JUMPDEST PUSH2 0x238B DUP8 DUP3 DUP9 ADD PUSH2 0x2296 JUMP JUMPDEST SWAP2 POP POP SWAP3 SWAP6 SWAP2 SWAP5 POP SWAP3 POP JUMP JUMPDEST PUSH2 0x23A0 DUP2 PUSH2 0x1B56 JUMP JUMPDEST DUP3 MSTORE POP POP JUMP JUMPDEST PUSH0 PUSH1 0x20 DUP3 ADD SWAP1 POP PUSH2 0x23B9 PUSH0 DUP4 ADD DUP5 PUSH2 0x2397 JUMP JUMPDEST SWAP3 SWAP2 POP POP JUMP JUMPDEST PUSH0 PUSH1 0x20 DUP3 DUP5 SUB SLT ISZERO PUSH2 0x23D4 JUMPI PUSH2 0x23D3 PUSH2 0x1B2F JUMP JUMPDEST JUMPDEST PUSH0 PUSH2 0x23E1 DUP5 DUP3 DUP6 ADD PUSH2 0x1BB0 JUMP JUMPDEST SWAP2 POP POP SWAP3 SWAP2 POP POP JUMP JUMPDEST PUSH0 PUSH0 PUSH1 0x40 DUP4 DUP6 SUB SLT ISZERO PUSH2 0x2400 JUMPI PUSH2 0x23FF PUSH2 0x1B2F JUMP JUMPDEST JUMPDEST PUSH0 PUSH2 0x240D DUP6 DUP3 DUP7 ADD PUSH2 0x1B7D JUMP JUMPDEST SWAP3 POP POP PUSH1 0x20 PUSH2 0x241E DUP6 DUP3 DUP7 ADD PUSH2 0x1B7D JUMP JUMPDEST SWAP2 POP POP SWAP3 POP SWAP3 SWAP1 POP JUMP JUMPDEST PUSH0 PUSH1 0x60 DUP3 ADD SWAP1 POP PUSH2 0x243B PUSH0 DUP4 ADD DUP7 PUSH2 0x1C35 JUMP JUMPDEST PUSH2 0x2448 PUSH1 0x20 DUP4 ADD DUP6 PUSH2 0x1C35 JUMP JUMPDEST PUSH2 0x2455 PUSH1 0x40 DUP4 ADD DUP5 PUSH2 0x1C35 JUMP JUMPDEST SWAP5 SWAP4 POP POP POP POP JUMP JUMPDEST PUSH32 0x4E487B7100000000000000000000000000000000000000000000000000000000 PUSH0 MSTORE PUSH1 0x22 PUSH1 0x4 MSTORE PUSH1 0x24 PUSH0 REVERT JUMPDEST PUSH0 PUSH1 0x2 DUP3 DIV SWAP1 POP PUSH1 0x1 DUP3 AND DUP1 PUSH2 0x24A1 JUMPI PUSH1 0x7F DUP3 AND SWAP2 POP JUMPDEST PUSH1 0x20 DUP3 LT DUP2 SUB PUSH2 0x24B4 JUMPI PUSH2 0x24B3 PUSH2 0x245D JUMP JUMPDEST JUMPDEST POP SWAP2 SWAP1 POP JUMP JUMPDEST PUSH32 0x496E76616C696420706C61796572206164647265737300000000000000000000 PUSH0 DUP3 ADD MSTORE POP JUMP JUMPDEST PUSH0 PUSH2 0x24EE PUSH1 0x16 DUP4 PUSH2 0x1AA0 JUMP JUMPDEST SWAP2 POP PUSH2 0x24F9 DUP3 PUSH2 0x24BA JUMP JUMPDEST PUSH1 0x20 DUP3 ADD SWAP1 POP SWAP2 SWAP1 POP JUMP JUMPDEST PUSH0 PUSH1 0x20 DUP3 ADD SWAP1 POP DUP2 DUP2 SUB PUSH0 DUP4 ADD MSTORE PUSH2 0x251B DUP2 PUSH2 0x24E2 JUMP JUMPDEST SWAP1 POP SWAP2 SWAP1 POP JUMP JUMPDEST PUSH32 0x4D7573742064657374726F79206174206C65617374203120626C6F636B000000 PUSH0 DUP3 ADD MSTORE POP JUMP JUMPDEST PUSH0 PUSH2 0x2556 PUSH1 0x1D DUP4 PUSH2 0x1AA0 JUMP JUMPDEST SWAP2 POP PUSH2 0x2561 DUP3 PUSH2 0x2522 JUMP JUMPDEST PUSH1 0x20 DUP3 ADD SWAP1 POP SWAP2 SWAP1 POP JUMP JUMPDEST PUSH0 PUSH1 0x20 DUP3 ADD SWAP1 POP DUP2 DUP2 SUB PUSH0 DUP4 ADD MSTORE PUSH2 0x2583 DUP2 PUSH2 0x254A JUMP JUMPDEST SWAP1 POP SWAP2 SWAP1 POP JUMP JUMPDEST PUSH32 0x50726F6F6620616C726561647920757365640000000000000000000000000000 PUSH0 DUP3 ADD MSTORE POP JUMP JUMPDEST PUSH0 PUSH2 0x25BE PUSH1 0x12 DUP4 PUSH2 0x1AA0 JUMP JUMPDEST SWAP2 POP PUSH2 0x25C9 DUP3 PUSH2 0x258A JUMP JUMPDEST PUSH1 0x20 DUP3 ADD SWAP1 POP SWAP2 SWAP1 POP JUMP JUMPDEST PUSH0 PUSH1 0x20 DUP3 ADD SWAP1 POP DUP2 DUP2 SUB PUSH0 DUP4 ADD MSTORE PUSH2 0x25EB DUP2 PUSH2 0x25B2 JUMP JUMPDEST SWAP1 POP SWAP2 SWAP1 POP JUMP JUMPDEST PUSH32 0x4E487B7100000000000000000000000000000000000000000000000000000000 PUSH0 MSTORE PUSH1 0x11 PUSH1 0x4 MSTORE PUSH1 0x24 PUSH0 REVERT JUMPDEST PUSH0 PUSH2 0x2629 DUP3 PUSH2 0x1B91 JUMP JUMPDEST SWAP2 POP PUSH2 0x2634 DUP4 PUSH2 0x1B91 JUMP JUMPDEST SWAP3 POP DUP3 DUP3 ADD SWAP1 POP DUP1 DUP3 GT ISZERO PUSH2 0x264C JUMPI PUSH2 0x264B PUSH2 0x25F2 JUMP JUMPDEST JUMPDEST SWAP3 SWAP2 POP POP JUMP JUMPDEST PUSH0 PUSH1 0x60 DUP3 ADD SWAP1 POP PUSH2 0x2665 PUSH0 DUP4 ADD DUP7 PUSH2 0x1C35 JUMP JUMPDEST PUSH2 0x2672 PUSH1 0x20 DUP4 ADD DUP6 PUSH2 0x1C35 JUMP JUMPDEST DUP2 DUP2 SUB PUSH1 0x40 DUP4 ADD MSTORE PUSH2 0x2684 DUP2 DUP5 PUSH2 0x1ACE JUMP JUMPDEST SWAP1 POP SWAP5 SWAP4 POP POP POP POP JUMP JUMPDEST PUSH32 0x4E487B7100000000000000000000000000000000000000000000000000000000 PUSH0 MSTORE PUSH1 0x32 PUSH1 0x4 MSTORE PUSH1 0x24 PUSH0 REVERT JUMPDEST PUSH32 0x4172726179206C656E677468206D69736D617463680000000000000000000000 PUSH0 DUP3 ADD MSTORE POP JUMP JUMPDEST PUSH0 PUSH2 0x26EF PUSH1 0x15 DUP4 PUSH2 0x1AA0 JUMP JUMPDEST SWAP2 POP PUSH2 0x26FA DUP3 PUSH2 0x26BB JUMP JUMPDEST PUSH1 0x20 DUP3 ADD SWAP1 POP SWAP2 SWAP1 POP JUMP JUMPDEST PUSH0 PUSH1 0x20 DUP3 ADD SWAP1 POP DUP2 DUP2 SUB PUSH0 DUP4 ADD MSTORE PUSH2 0x271C DUP2 PUSH2 0x26E3 JUMP JUMPDEST SWAP1 POP SWAP2 SWAP1 POP JUMP JUMPDEST PUSH0 PUSH1 0x60 DUP3 ADD SWAP1 POP PUSH2 0x2736 PUSH0 DUP4 ADD DUP7 PUSH2 0x2397 JUMP JUMPDEST PUSH2 0x2743 PUSH1 0x20 DUP4 ADD DUP6 PUSH2 0x1C35 JUMP JUMPDEST PUSH2 0x2750 PUSH1 0x40 DUP4 ADD DUP5 PUSH2 0x1C35 JUMP JUMPDEST SWAP5 SWAP4 POP POP POP POP JUMP JUMPDEST PUSH32 0x5265656E7472616E637947756172643A207265656E7472616E742063616C6C00 PUSH0 DUP3 ADD MSTORE POP JUMP JUMPDEST PUSH0 PUSH2 0x278C PUSH1 0x1F DUP4 PUSH2 0x1AA0 JUMP JUMPDEST SWAP2 POP PUSH2 0x2797 DUP3 PUSH2 0x2758 JUMP JUMPDEST PUSH1 0x20 DUP3 ADD SWAP1 POP SWAP2 SWAP1 POP JUMP JUMPDEST PUSH0 PUSH1 0x20 DUP3 ADD SWAP1 POP DUP2 DUP2 SUB PUSH0 DUP4 ADD MSTORE PUSH2 0x27B9 DUP2 PUSH2 0x2780 JUMP JUMPDEST SWAP1 POP SWAP2 SWAP1 POP JUMP INVALID LOG2 PUSH5 0x6970667358 0x22 SLT KECCAK256 0xCE 0xD0 PUSH29 0x46E675D77B6A137438A80EEB35581EDD948F44C9ED32E21A37237CDFB4 PUSH5 0x736F6C6343 STOP ADDMOD 0x1E STOP CALLER "
    },
    "gasEstimates": {
      "creation": {
        "codeDepositCost": "2046000",
        "executionCost": "infinite",
        "totalCost": "infinite"
      },
      "external": {
        "airdropTokens(address,uint256,string,bytes32)": "infinite",
        "allowance(address,address)": "infinite",
        "approve(address,uint256)": "infinite",
        "balanceOf(address)": "2961",
        "batchAirdropTokens(address[],uint256[],string[],bytes32[])": "infinite",
        "calculateReward(uint256)": "infinite",
        "decimals()": "450",
        "emergencyMint(address,uint256)": "infinite",
        "getPlayerStats(address)": "infinite",
        "getRewardTiersCount()": "2573",
        "isProofUsed(bytes32)": "2899",
        "lastAirdropTime(address)": "2936",
        "name()": "infinite",
        "owner()": "2582",
        "renounceOwnership()": "infinite",
        "rewardTiers(uint256)": "infinite",
        "setRewardTier(uint256,uint256,uint256,uint256)": "infinite",
        "symbol()": "infinite",
        "totalAirdropsReceived(address)": "2847",
        "totalSupply()": "2500",
        "transfer(address,uint256)": "infinite",
        "transferFrom(address,address,uint256)": "infinite",
        "transferOwnership(address)": "infinite",
        "usedProofs(bytes32)": "2852",
        "withdrawETH()": "infinite"
      }
    },
    "methodIdentifiers": {
      "airdropTokens(address,uint256,string,bytes32)": "46e3077d",
      "allowance(address,address)": "dd62ed3e",
      "approve(address,uint256)": "095ea7b3",
      "balanceOf(address)": "70a08231",
      "batchAirdropTokens(address[],uint256[],string[],bytes32[])": "743bad1f",
      "calculateReward(uint256)": "d2d7231f",
      "decimals()": "313ce567",
      "emergencyMint(address,uint256)": "43785dc9",
      "getPlayerStats(address)": "4fd66eae",
      "getRewardTiersCount()": "aaa6444c",
      "isProofUsed(bytes32)": "557bbf7f",
      "lastAirdropTime(address)": "33939064",
      "name()": "06fdde03",
      "owner()": "8da5cb5b",
      "renounceOwnership()": "715018a6",
      "rewardTiers(uint256)": "ff201114",
      "setRewardTier(uint256,uint256,uint256,uint256)": "6f447586",
      "symbol()": "95d89b41",
      "totalAirdropsReceived(address)": "bdba1743",
      "totalSupply()": "18160ddd",
      "transfer(address,uint256)": "a9059cbb",
      "transferFrom(address,address,uint256)": "23b872dd",
      "transferOwnership(address)": "f2fde38b",
      "usedProofs(bytes32)": "c30a0f25",
      "withdrawETH()": "e086e5ec"
    }
  },
  "abi": [
    {
      "inputs": [
        {
          "internalType": "string",
          "name": "_name",
          "type": "string"
        },
        {
          "internalType": "string",
          "name": "_symbol",
          "type": "string"
        }
      ],
      "stateMutability": "nonpayable",
      "type": "constructor"
    },
    {
      "inputs": [
        {
          "internalType": "address",
          "name": "spender",
          "type": "address"
        },
        {
          "internalType": "uint256",
          "name": "allowance",
          "type": "uint256"
        },
        {
          "internalType": "uint256",
          "name": "needed",
          "type": "uint256"
        }
      ],
      "name": "ERC20InsufficientAllowance",
      "type": "error"
    },
    {
      "inputs": [
        {
          "internalType": "address",
          "name": "sender",
          "type": "address"
        },
        {
          "internalType": "uint256",
          "name": "balance",
          "type": "uint256"
        },
        {
          "internalType": "uint256",
          "name": "needed",
          "type": "uint256"
        }
      ],
      "name": "ERC20InsufficientBalance",
      "type": "error"
    },
    {
      "inputs": [
        {
          "internalType": "address",
          "name": "approver",
          "type": "address"
        }
      ],
      "name": "ERC20InvalidApprover",
      "type": "error"
    },
    {
      "inputs": [
        {
          "internalType": "address",
          "name": "receiver",
          "type": "address"
        }
      ],
      "name": "ERC20InvalidReceiver",
      "type": "error"
    },
    {
      "inputs": [
        {
          "internalType": "address",
          "name": "sender",
          "type": "address"
        }
      ],
      "name": "ERC20InvalidSender",
      "type": "error"
    },
    {
      "inputs": [
        {
          "internalType": "address",
          "name": "spender",
          "type": "address"
        }
      ],
      "name": "ERC20InvalidSpender",
      "type": "error"
    },
    {
      "inputs": [
        {
          "internalType": "address",
          "name": "owner",
          "type": "address"
        }
      ],
      "name": "OwnableInvalidOwner",
      "type": "error"
    },
    {
      "inputs": [
        {
          "internalType": "address",
          "name": "account",
          "type": "address"
        }
      ],
      "name": "OwnableUnauthorizedAccount",
      "type": "error"
    },
    {
      "anonymous": false,
      "inputs": [
        {
          "indexed": true,
          "internalType": "address",
          "name": "owner",
          "type": "address"
        },
        {
          "indexed": true,
          "internalType": "address",
          "name": "spender",
          "type": "address"
        },
        {
          "indexed": false,
          "internalType": "uint256",
          "name": "value",
          "type": "uint256"
        }
      ],
      "name": "Approval",
      "type": "event"
    },
    {
      "anonymous": false,
      "inputs": [
        {
          "indexed": true,
          "internalType": "address",
          "name": "previousOwner",
          "type": "address"
        },
        {
          "indexed": true,
          "internalType": "address",
          "name": "newOwner",
          "type": "address"
        }
      ],
      "name": "OwnershipTransferred",
      "type": "event"
    },
    {
      "anonymous": false,
      "inputs": [
        {
          "indexed": true,
          "internalType": "uint256",
          "name": "tier",
          "type": "uint256"
        },
        {
          "indexed": false,
          "internalType": "uint256",
          "name": "minBlocks",
          "type": "uint256"
        },
        {
          "indexed": false,
          "internalType": "uint256",
          "name": "maxBlocks",
          "type": "uint256"
        },
        {
          "indexed": false,
          "internalType": "uint256",
          "name": "reward",
          "type": "uint256"
        }
      ],
      "name": "RewardTierUpdated",
      "type": "event"
    },
    {
      "anonymous": false,
      "inputs": [
        {
          "indexed": true,
          "internalType": "address",
          "name": "player",
          "type": "address"
        },
        {
          "indexed": false,
          "internalType": "uint256",
          "name": "blocksDestroyed",
          "type": "uint256"
        },
        {
          "indexed": false,
          "internalType": "uint256",
          "name": "tokensAwarded",
          "type": "uint256"
        },
        {
          "indexed": false,
          "internalType": "string",
          "name": "aggregationId",
          "type": "string"
        }
      ],
      "name": "TokensAirdropped",
      "type": "event"
    },
    {
      "anonymous": false,
      "inputs": [
        {
          "indexed": true,
          "internalType": "address",
          "name": "from",
          "type": "address"
        },
        {
          "indexed": true,
          "internalType": "address",
          "name": "to",
          "type": "address"
        },
        {
          "indexed": false,
          "internalType": "uint256",
          "name": "value",
          "type": "uint256"
        }
      ],
      "name": "Transfer",
      "type": "event"
    },
    {
      "inputs": [
        {
          "internalType": "address",
          "name": "_player",
          "type": "address"
        },
        {
          "internalType": "uint256",
          "name": "_blocksDestroyed",
          "type": "uint256"
        },
        {
          "internalType": "string",
          "name": "_aggregationId",
          "type": "string"
        },
        {
          "internalType": "bytes32",
          "name": "_proofHash",
          "type": "bytes32"
        }
      ],
      "name": "airdropTokens",
      "outputs": [],
      "stateMutability": "nonpayable",
      "type": "function"
    },
    {
      "inputs": [
        {
          "internalType": "address",
          "name": "owner",
          "type": "address"
        },
        {
          "internalType": "address",
          "name": "spender",
          "type": "address"
        }
      ],
      "name": "allowance",
      "outputs": [
        {
          "internalType": "uint256",
          "name": "",
          "type": "uint256"
        }
      ],
      "stateMutability": "view",
      "type": "function"
    },
    {
      "inputs": [
        {
          "internalType": "address",
          "name": "spender",
          "type": "address"
        },
        {
          "internalType": "uint256",
          "name": "value",
          "type": "uint256"
        }
      ],
      "name": "approve",
      "outputs": [
        {
          "internalType": "bool",
          "name": "",
          "type": "bool"
        }
      ],
      "stateMutability": "nonpayable",
      "type": "function"
    },
    {
      "inputs": [
        {
          "internalType": "address",
          "name": "account",
          "type": "address"
        }
      ],
      "name": "balanceOf",
      "outputs": [
        {
          "internalType": "uint256",
          "name": "",
          "type": "uint256"
        }
      ],
      "stateMutability": "view",
      "type": "function"
    },
    {
      "inputs": [
        {
          "internalType": "address[]",
          "name": "_players",
          "type": "address[]"
        },
        {
          "internalType": "uint256[]",
          "name": "_blocksDestroyed",
          "type": "uint256[]"
        },
        {
          "internalType": "string[]",
          "name": "_aggregationIds",
          "type": "string[]"
        },
        {
          "internalType": "bytes32[]",
          "name": "_proofHashes",
          "type": "bytes32[]"
        }
      ],
      "name": "batchAirdropTokens",
      "outputs": [],
      "stateMutability": "nonpayable",
      "type": "function"
    },
    {
      "inputs": [
        {
          "internalType": "uint256",
          "name": "_blocksDestroyed",
          "type": "uint256"
        }
      ],
      "name": "calculateReward",
      "outputs": [
        {
          "internalType": "uint256",
          "name": "",
          "type": "uint256"
        }
      ],
      "stateMutability": "view",
      "type": "function"
    },
    {
      "inputs": [],
      "name": "decimals",
      "outputs": [
        {
          "internalType": "uint8",
          "name": "",
          "type": "uint8"
        }
      ],
      "stateMutability": "view",
      "type": "function"
    },
    {
      "inputs": [
        {
          "internalType": "address",
          "name": "_to",
          "type": "address"
        },
        {
          "internalType": "uint256",
          "name": "_amount",
          "type": "uint256"
        }
      ],
      "name": "emergencyMint",
      "outputs": [],
      "stateMutability": "nonpayable",
      "type": "function"
    },
    {
      "inputs": [
        {
          "internalType": "address",
          "name": "_player",
          "type": "address"
        }
      ],
      "name": "getPlayerStats",
      "outputs": [
        {
          "internalType": "uint256",
          "name": "totalReceived",
          "type": "uint256"
        },
        {
          "internalType": "uint256",
          "name": "lastAirdrop",
          "type": "uint256"
        }
      ],
      "stateMutability": "view",
      "type": "function"
    },
    {
      "inputs": [],
      "name": "getRewardTiersCount",
      "outputs": [
        {
          "internalType": "uint256",
          "name": "",
          "type": "uint256"
        }
      ],
      "stateMutability": "view",
      "type": "function"
    },
    {
      "inputs": [
        {
          "internalType": "bytes32",
          "name": "_proofHash",
          "type": "bytes32"
        }
      ],
      "name": "isProofUsed",
      "outputs": [
        {
          "internalType": "bool",
          "name": "",
          "type": "bool"
        }
      ],
      "stateMutability": "view",
      "type": "function"
    },
    {
      "inputs": [
        {
          "internalType": "address",
          "name": "",
          "type": "address"
        }
      ],
      "name": "lastAirdropTime",
      "outputs": [
        {
          "internalType": "uint256",
          "name": "",
          "type": "uint256"
        }
      ],
      "stateMutability": "view",
      "type": "function"
    },
    {
      "inputs": [],
      "name": "name",
      "outputs": [
        {
          "internalType": "string",
          "name": "",
          "type": "string"
        }
      ],
      "stateMutability": "view",
      "type": "function"
    },
    {
      "inputs": [],
      "name": "owner",
      "outputs": [
        {
          "internalType": "address",
          "name": "",
          "type": "address"
        }
      ],
      "stateMutability": "view",
      "type": "function"
    },
    {
      "inputs": [],
      "name": "renounceOwnership",
      "outputs": [],
      "stateMutability": "nonpayable",
      "type": "function"
    },
    {
      "inputs": [
        {
          "internalType": "uint256",
          "name": "",
          "type": "uint256"
        }
      ],
      "name": "rewardTiers",
      "outputs": [
        {
          "internalType": "uint256",
          "name": "minBlocks",
          "type": "uint256"
        },
        {
          "internalType": "uint256",
          "name": "maxBlocks",
          "type": "uint256"
        },
        {
          "internalType": "uint256",
          "name": "tokenReward",
          "type": "uint256"
        }
      ],
      "stateMutability": "view",
      "type": "function"
    },
    {
      "inputs": [
        {
          "internalType": "uint256",
          "name": "_tierIndex",
          "type": "uint256"
        },
        {
          "internalType": "uint256",
          "name": "_minBlocks",
          "type": "uint256"
        },
        {
          "internalType": "uint256",
          "name": "_maxBlocks",
          "type": "uint256"
        },
        {
          "internalType": "uint256",
          "name": "_tokenReward",
          "type": "uint256"
        }
      ],
      "name": "setRewardTier",
      "outputs": [],
      "stateMutability": "nonpayable",
      "type": "function"
    },
    {
      "inputs": [],
      "name": "symbol",
      "outputs": [
        {
          "internalType": "string",
          "name": "",
          "type": "string"
        }
      ],
      "stateMutability": "view",
      "type": "function"
    },
    {
      "inputs": [
        {
          "internalType": "address",
          "name": "",
          "type": "address"
        }
      ],
      "name": "totalAirdropsReceived",
      "outputs": [
        {
          "internalType": "uint256",
          "name": "",
          "type": "uint256"
        }
      ],
      "stateMutability": "view",
      "type": "function"
    },
    {
      "inputs": [],
      "name": "totalSupply",
      "outputs": [
        {
          "internalType": "uint256",
          "name": "",
          "type": "uint256"
        }
      ],
      "stateMutability": "view",
      "type": "function"
    },
    {
      "inputs": [
        {
          "internalType": "address",
          "name": "to",
          "type": "address"
        },
        {
          "internalType": "uint256",
          "name": "value",
          "type": "uint256"
        }
      ],
      "name": "transfer",
      "outputs": [
        {
          "internalType": "bool",
          "name": "",
          "type": "bool"
        }
      ],
      "stateMutability": "nonpayable",
      "type": "function"
    },
    {
      "inputs": [
        {
          "internalType": "address",
          "name": "from",
          "type": "address"
        },
        {
          "internalType": "address",
          "name": "to",
          "type": "address"
        },
        {
          "internalType": "uint256",
          "name": "value",
          "type": "uint256"
        }
      ],
      "name": "transferFrom",
      "outputs": [
        {
          "internalType": "bool",
          "name": "",
          "type": "bool"
        }
      ],
      "stateMutability": "nonpayable",
      "type": "function"
    },
    {
      "inputs": [
        {
          "internalType": "address",
          "name": "newOwner",
          "type": "address"
        }
      ],
      "name": "transferOwnership",
      "outputs": [],
      "stateMutability": "nonpayable",
      "type": "function"
    },
    {
      "inputs": [
        {
          "internalType": "bytes32",
          "name": "",
          "type": "bytes32"
        }
      ],
      "name": "usedProofs",
      "outputs": [
        {
          "internalType": "bool",
          "name": "",
          "type": "bool"
        }
      ],
      "stateMutability": "view",
      "type": "function"
    },
    {
      "inputs": [],
      "name": "withdrawETH",
      "outputs": [],
      "stateMutability": "nonpayable",
      "type": "function"
    },
    {
      "stateMutability": "payable",
      "type": "receive"
    }
  ]
}